:020000021000EC
:10400000004000204DBC010089BC01008BBC0100B8
:1040100000000000000000000000000000000000A0
:104020000000000000000000000000008DBC010046
:1040300000000000000000008FBC010091BC0100E6
:1040400093BC010093BC010093BC010093BC010030
:1040500093BC01000000000093BC010093BC010070
:1040600093BC010093BC010093BC010093BC010010
:1040700093BC010093BC010093BC010093BC010000
:1040800093BC010015B7010093BC010093BC010073
:1040900061B70100A5A60100B97F010093BC010032
:1040A00093BC010093BC0100000000000000000070
:1040B0000000000000000000000000000000000000
:1040C00010B5064C2378002B07D1054B002B02D0EE
:1040D000044800E000BF0123237010BD4C240020E1
:1040E00000000000E4C4010008B5084B002B03D019
:1040F0000748084900E000BF07480368002B03D0C9
:10410000064B002B00D0984708BDC04600000000B9
:10411000E4C40100502400204824002000000000D6
:10412000164B002B00D1144B9D46402292029A1A46
:10413000924600218B460F461348144A121A07F084
:10414000E7FE0F4B002B00D098470E4B002B00D002
:1041500098470020002104000D000D48002802D0DF
:104160000C4808F00DF807F0F5FD2000290001F0DB
:104170009BF807F0DFFDC04600000800004000206B
:1041800000000000000000004C240020202F002030
:1041900081C1010091C1010080B500AFBFF34F8F15
:1041A000024B034ADA60BFF34F8FFEE700ED00E0F9
:1041B0000400FA0580B582B000AF7860A023DA056C
:1041C0007B6801219940A123DB00D150BD4602B09C
:1041D00080BDC04680B582B000AF7860A023DA050C
:1041E0007B6801219940024BD150BD4602B080BD91
:1041F0000C05000080B582B000AF7860A023DA051E
:10420000A223DB00D2587B68DA4001231340181C3C
:10421000BD4602B080BDC04660DF7047181CC04676
:1042200061DF7047181CC04662DF7047181CC0462B
:1042300063DF7047181CC04664DF7047181CC04617
:1042400065DF7047181CC04666DF7047181CC04603
:1042500067DF7047181CC04668DF7047181CC046EF
:1042600069DF7047181CC0466ADF7047181CC046DB
:104270006BDF7047181CC0466CDF7047181CC046C7
:104280006DDF7047181CC0466EDF7047181CC046B3
:104290006FDF7047181CC04670DF7047181CC0469F
:1042A00071DF7047181CC04672DF7047181CC0468B
:1042B00073DF7047181CC04674DF7047181CC04677
:1042C000B0DF7047181CC046B1DF7047181CC046ED
:1042D000B2DF7047181CC04680DF7047181CC0460C
:1042E00081DF7047181CC04682DF7047181CC0462B
:1042F00083DF7047181CC04684DF7047181CC04617
:1043000085DF7047181CC04686DF7047181CC04602
:1043100087DF7047181CC04688DF7047181CC046EE
:10432000A0DF7047181CC046A1DF7047181CC046AC
:10433000A2DF7047181CC046A3DF7047181CC04698
:10434000A4DF7047181CC046A5DF7047181CC04684
:10435000A6DF7047181CC046A7DF7047181CC04670
:10436000A8DF7047181CC046A9DF7047181CC0465C
:10437000AADF7047181CC04650DF7047181CC046A3
:1043800051DF7047181CC04652DF7047181CC046EA
:1043900053DF7047181CC04654DF7047181CC046D6
:1043A00055DF7047181CC04620DF7047181CC046F8
:1043B00021DF7047181CC04622DF7047181CC0461A
:1043C00023DF7047181CC04624DF7047181CC04606
:1043D00025DF7047181CC04626DF7047181CC046F2
:1043E00027DF7047181CC04628DF7047181CC046DE
:1043F00029DF7047181CC0462ADF7047181CC046CA
:104400002BDF7047181CC0462CDF7047181CC046B5
:104410002DDF7047181CC0462EDF7047181CC046A1
:104420002FDF7047181CC04632DF7047181CC0468B
:1044300033DF7047181CC04630DF7047181CC04679
:1044400031DF7047181CC04634DF7047181CC04667
:1044500035DF7047181CC04636DF7047181CC04651
:1044600037DF7047181CC04638DF7047181CC0463D
:1044700039DF7047181CC0463ADF7047181CC04629
:104480003BDF7047181CC0463CDF7047181CC04615
:104490003EDF7047181CC0463FDF7047181CC046FF
:1044A00040DF7047181CC0463DDF7047181CC046EF
:1044B00041DF7047181CC04642DF7047181CC046D9
:1044C00043DF7047181CC04644DF7047181CC046C5
:1044D00045DF7047181CC04646DF7047181CC046B1
:1044E00047DF7047181CC04648DF7047181CC0469D
:1044F00049DF7047181CC0464ADF7047181CC04689
:104500004BDF7047181CC04610DF7047181CC046B0
:1045100011DF7047181CC04612DF7047181CC046D8
:1045200013DF7047181CC04680B584B000AFF86038
:10453000B9607A600F20FFF73DFEFFF72DFEBD4604
:1045400004B080BD80B582B000AF021C3960BB1DD5
:104550001A80BB1D1A8805493B68081C111C1A1CCF
:10456000FFF7E2FFBD4602B080BDC046EFBEADDE44
:1045700080B582B000AF154A154B101C191C03F012
:10458000BBFA021CFB1D1A70124AFB1D1B78101C83
:10459000191C01F0AFF9031C3B603B68002B11D0E4
:1045A0003B68082B0ED03A680B4B9A420AD03A6807
:1045B0000A4B9A4206D03A68094B101CB5211A1CC6
:1045C000FFF7B2FFBD4602B080BDC046FC2400200C
:1045D000EC2400208424002003300000013400007B
:1045E0009CC2010080B582B000AF7860FFF7C0FFC9
:1045F000BD4602B080BDC04680B584B000AF7860D3
:104600001E4A1F4B101C191C03F076FA021C3B1C9F
:104610000E331A801B4B1B685A1C1A4B1A601A4A1D
:104620003B1C0E331B88101C191C02F08BF9031C59
:10463000BB60BB68002B11D0BB68082B0ED0BA68DA
:10464000124B9A420AD0BA68114B9A4206D0BA6805
:10465000104B101CE2211A1CFFF766FF094B1B6868
:10466000181C032107F05AFB0B1C5A1E9341DAB2A7
:10467000094B1A70BD4604B080BDC0461425002009
:1046800004250020442500209C2400200330000045
:10469000013400009CC201000620002080B584B0D7
:1046A00000AF78600C4B1B78002B11D00B4A0C4BE1
:1046B000101C191C03F020FA021C3B1C0E331A803C
:1046C000084A3B1C0E331B88101C191C02F09CF975
:1046D000BD4604B080BDC046062000202C25002029
:1046E0001C2500209C24002080B582B000AF78609B
:1046F0000B4B1B785A1E9341DBB201225340DBB2B5
:104700001A1C01231340DAB2054B1A70044B1B78B4
:10471000044A101C191C02F0D1F9BD4602B080BD3C
:10472000482500209C24002080B500AFA023DA0596
:10473000E423DB000321D150A023DA05044B03213D
:10474000D150A023DA05034B0321D150BD4680BDD3
:10475000240700003C07000080B58AB002AF3D4B43
:104760000022009200200521052206F0FFFF031C15
:10477000FB61FB69BB61BB69002B09D0B9692A23C6
:104780001A1CFF32344B081C111C1A1CFFF7CCFEFC
:10479000324A334B101C01211A1C07F09FF8031CEE
:1047A0007B617B693B613B69002B09D03969302310
:1047B0001A1CFF32284B081C111C1A1CFFF7B4FEF0
:1047C000284A294B101C01211A1C07F087F8031CEA
:1047D0007B617B69FB60FB68002B08D0F9689A233A
:1047E0005A001D4B081C111C1A1CFFF79DFE1F4A86
:1047F0001F4B101C01211A1C07F070F8031C7B6171
:104800007B69BB60BB68002B09D0B9683A231A1CCE
:10481000FF32114B081C111C1A1CFFF785FE154AAC
:10482000154B101C01211A1C07F058F8031C7B6162
:104830007B697B607B68002B08D079689F235A00D6
:10484000054B081C111C1A1CFFF76EFEBD4608B074
:1048500080BDC0464C2500209CC2010034250020AC
:10486000E545010038250020F94501003C250020E0
:104870009D46010040250020E946010080B588B032
:1048800000AF3B1D1A780F218A4301210A431A7099
:104890003B1D19780F220A4010210A431A703A1D55
:1048A0002E4B101C191C0A22FFF7E6FC031CFB61AF
:1048B000FB69BB61BB69002B08D0B969A9235A0009
:1048C000274B081C111C1A1CFFF72EFE254B181C29
:1048D000FFF7C2FC031CFB61FB697B617B69002B5A
:1048E00009D0796956231A1CFF321D4B081C111C74
:1048F0001A1CFFF719FE3B1C0833181C0021082264
:1049000007F006FB3B1C0833C82252001A803B1CF0
:104910000833C82292005A803B1C083300229A8038
:104920003B1C0833C8225200DA803B1C0833181C99
:10493000FFF79AFC031CFB61FB693B613B69002BA1
:1049400009D0396960231A1CFF32054B081C111C61
:104950001A1CFFF7E9FDBD4608B080BDA8C20100E2
:104960009CC201004103000080B594B000AF3B1C25
:104970000F3306221A703A1C2B4B111C1A1C0C23E5
:10498000081C111C1A1C07F02FFA3B1C1033181CB2
:104990000021382207F0BCFA3B1C103302221A70A7
:1049A0003B1C103301229A703B1C103301229A8069
:1049B0003B1C10333A1C0F329A603B1C103303220D
:1049C0001A833B1C10333A1CDA613B1C1033181C51
:1049D000002103F00FF8031CFB64FB6CBB64BB6C91
:1049E000002B08D0B96CC0235A00104B081C111CB6
:1049F0001A1CFFF799FD0E4B181C0021142207F01A
:104A000087FA0B4B00221A70094B00225A60084BA0
:104A100000221A72064B28221A82054BB4225A82AF
:104A2000BD4614B080BDC046B4C201009CC20100A6
:104A30007024002080B5A0B000AFFB1D03221A70C7
:104A40003B1C5C33181C0021142207F061FA3B1C4C
:104A50005C3300221A603B1C5C3301221A713B1C40
:104A60005C33FA1D9A603B1C5C331A7B0F218A432E
:104A700001210A431A733B1C5C33197B0F220A4045
:104A800010210A431A733B1C5C335A7B0F218A4363
:104A90005A733B1C5C33597B0F220A405A733B1CF0
:104AA0005C339A7B0F218A439A733B1C5C33997B5E
:104AB0000F220A409A733B1C5C33DA7B0F218A4336
:104AC00001210A43DA733B1C5C33D97B0F220A4075
:104AD00010210A43DA733B1C5C331A7C0F218A4392
:104AE0001A743B1C5C33197C0F220A401A74644A06
:104AF0003B1C5C33101C191C01F0CEFE031CFB6731
:104B0000FB6FBB67BB6F002B09D0B96FAC231A1CBE
:104B1000FF325C4B081C111C1A1CFFF705FD3B1CE7
:104B20004833181C0021142207F0F2F93B1C4833CB
:104B30005A7B0F218A4301210A435A733B1C483395
:104B4000597B0F220A4010210A435A733B1C4833F9
:104B50009A7B0F218A4301210A439A733B1C4833F5
:104B6000997B0F220A4010210A439A733B1C483359
:104B7000DA7B0F218A43DA733B1C4833D97B0F223F
:104B80000A40DA733B1C48331A7C0F218A43012107
:104B90000A431A743B1C4833197C0F220A40102127
:104BA0000A431A743B1C483300221A603B1C4833EA
:104BB00001221A713B1C483300229A603B1C483387
:104BC00064221A73304A3B1C4833101C191C00F035
:104BD00057FE031CFB67FB6F7B677B6F002B09D0C5
:104BE000796FBE231A1CFF32264B081C111C1A1C9D
:104BF000FFF79AFC3B1C0833181C0021402207F0E9
:104C000087F93A1C0832214B101C191C02F016F8C7
:104C10003A1C08323C23D15C0F2081430120014320
:104C2000D1543A1C08323C23D05C0F2101401020A3
:104C30000143D1543A1C08323D23D15C0F208143FB
:104C4000D1543A1C08323D23D05C0F210140D1548D
:104C50003B1C0833181C01F067F9031CFB67FB6F52
:104C60003B673B6F002B08D0396FE4235A00054B9C
:104C7000081C111C1A1CFFF757FCBD4620B080BD54
:104C80009C2400209CC2010084240020C0C201009A
:104C900080B500AF1C4B51221A601B4B64225A6036
:104CA000194B01229A60184B01221A73174A164BAE
:104CB000101C191C02F004FF154B8C221A60144BB7
:104CC000962252005A60124B0A229A60104B002220
:104CD0001A73104A0E4B101C191C02F0F1FE0E4BF9
:104CE00064221A600C4BFA2252005A600A4B0122CD
:104CF0009A60094B00221A73084A074B101C191CB2
:104D000002F0DEFEBD4680BDEC240020FC24002025
:104D100004250020142500201C2500202C2500201F
:104D200080B500AF104B1E221A800F4B9A780121DC
:104D30000A439A700C4B9A7802218A439A700A4B64
:104D40009A781C218A430C210A439A70064B9A7860
:104D500020218A439A70044B0722DA70024B1022FA
:104D60001A71BD4680BDC0466824002080B586B05B
:104D700000AF324B1A6880235B02101C191C002202
:104D800006F024FE031C7B617B693B613B69002BC1
:104D900009D03969FE231A1CFF32294B081C111C4B
:104DA0001A1CFFF7C1FB274B1A6880231B02101C3B
:104DB000191C002206F00AFE031C7B617B69FB6064
:104DC000FB68002B08D0F96880239A001C4B081C54
:104DD000111C1A1CFFF7A8FB1B4B1A681B4B101C5D
:104DE000191C002206F0F2FD031C7B617B69BB608D
:104DF000BB68002B07D0B968154A114B081C111C61
:104E00001A1CFFF791FB134B1A68A0239B02101C7E
:104E1000191C002206F0DAFD031C7B617B697B60B4
:104E20007B68002B07D079680B4A054B081C111CC6
:104E30001A1CFFF779FBBD4606B080BD3425002063
:104E40009CC20100382500203C2500206626000079
:104E500003020000402500200602000080B582B059
:104E600000AF0C4B181CFFF7E3F9031C7B607B6859
:104E70003B603B68002B07D03968074A074B081C8A
:104E8000111C1A1CFFF750FB0820FFF793F9BD46D1
:104E900002B080BD70240020110200009CC20100FD
:104EA00080B584B000AF78607B681B78002B15D18B
:104EB0000C4B1B88181C3B21FFF7C6F9031CFB6039
:104EC000FB68BB60BB68002B08D0B9688A239A00D6
:104ED000054B081C111C1A1CFFF726FBBD4604B02D
:104EE00080BDC046042000209CC2010080B582B075
:104EF00000AF78607968054A054B081C111C1A1C24
:104F0000FFF712FBBD4602B080BDC0463302000071
:104F10009CC2010080B58AB000AF3B1D181C002167
:104F20001C2206F0F5FF3B1D00221A603B1DA0224B
:104F300092025A603B1DA02292029A603B1D0322FE
:104F40001A73114B9A893B1DDA813B1D00221A749A
:104F50003B1D0E4A5A613B1D0D4A9A613B1D181CB0
:104F600003F0BEF9031C7B627B6A3B623B6A002B49
:104F700007D0396A074A084B081C111C1A1CFFF796
:104F8000D3FABD460AB080BD9C240020A14E01008A
:104F9000ED4E01004A0200009CC2010080B586B0BF
:104FA00000AF786000237B617B681B88112B13D0D6
:104FB00002DC102B05D042E0132B28D0192B31D066
:104FC0003DE00920FFF7F6F80820FFF703F97B68BA
:104FD0009A88234B1A8032E00920FFF7FBF8204B18
:104FE000012252421A8004F0DBFB031C7B617B69C7
:104FF0003B613B69002B07D039691A4A1A4B081CE0
:10500000111C1A1CFFF790FAFFF728FF17E0144B4A
:105010001A88164B101C00211A1CFFF739F9031CC3
:105020007B610CE07B689B79002B07D10820FFF7A0
:10503000D1F8FFF705FA031C7B61FFE7C0467B69E7
:10504000FB60FB68002B07D0F968094A064B081C77
:10505000111C1A1CFFF768FABD4606B080BDC04699
:1050600004200020660200009CC201006824002089
:105070007F02000080B582B000AF78607B68181CAA
:1050800004F044FB0B4A7B68101C191C01F0D8F992
:10509000094A7B68101C191C00F06CFA7B68181C0C
:1050A00003F07CFA7B68181CFFF778FFBD4602B05E
:1050B00080BDC0469C2400208424002080B584B09C
:1050C00002AF0D4A0D4B002100910D20111C502202
:1050D00002F0FCFE031C7B607B683B603B68002B9E
:1050E00007D03968064A074B081C111C1A1CFFF729
:1050F0001BFABD4602B080BDDC27002075500100C0
:105100009D0200009CC2010080B500AFA023DA051B
:10511000E023DB00C0218902D150A023DA05034B34
:10512000C0218902D150BD4680BDC04604070000A1
:1051300080B582B000AF78607968054A054B081CDD
:10514000111C1A1CFFF7F0F9BD4602B080BDC04625
:10515000B10200009CC2010080B586B000AF012002
:10516000FFF748F8021C3B1C173351424A411A70A2
:105170002B4B5B6901330ED0294B5A6980235B05A9
:105180001B699BB2101C191C06F084FD031CDBB2CA
:10519000013BDBB205E080235B055B69DBB2013BD1
:1051A000DBB23A1C13701E4B5B6901330ED01C4BF3
:1051B0005A6980235B051B699BB2101C191C06F001
:1051C00069FD031CDBB2033BDBB205E080235B051A
:1051D0005B69DBB2033BDBB23A1C53703B1C002221
:1051E0005A603B1C0F4A9A603B1C3A1C17321278DB
:1051F0009A703B1C181C04F0A1FC031C3B613B692A
:10520000FB60FB68002B08D0F968B2239A00064BBC
:10521000081C111C1A1CFFF787F9BD4606B080BD9B
:1052200000100010315101009CC2010080B582B015
:1052300000AF0C4B012005211A1C05F053FA031C8A
:105240007B607B683B603B68002B07D03968064A6F
:10525000064B081C111C1A1CFFF766F9BD4602B06C
:1052600080BDC04625A50100D50200009CC20100FA
:1052700080B582B000AFFFF717F9031C7B607B6835
:105280003B603B68002B07D03968054A054B081C7A
:10529000111C1A1CFFF748F9BD4602B080BDC0467C
:1052A000DE0200009CC2010080B500AFFFF73CFAAF
:1052B000FFF72AFFFFF750FFFFF700FF01F0E8FDBF
:1052C000FFF74AFAFFF7DAFAFFF74EFBFFF7B2FBF8
:1052D000FFF7DEFCFFF71EFEFFF722FDFFF7A6FF3C
:1052E000FFF744FDFFF7BAFDFFF7C2FFFCE7C0463A
:1052F00060DF7047181CC04661DF7047181CC0464D
:1053000062DF7047181CC04663DF7047181CC04638
:1053100064DF7047181CC04665DF7047181CC04624
:1053200066DF7047181CC04667DF7047181CC04610
:1053300068DF7047181CC04669DF7047181CC046FC
:105340006ADF7047181CC0466BDF7047181CC046E8
:105350006CDF7047181CC0466DDF7047181CC046D4
:105360006EDF7047181CC0466FDF7047181CC046C0
:1053700070DF7047181CC04671DF7047181CC046AC
:1053800072DF7047181CC04673DF7047181CC04698
:1053900074DF7047181CC046B0DF7047181CC04649
:1053A000B1DF7047181CC046B2DF7047181CC046FA
:1053B00080DF7047181CC04681DF7047181CC0464C
:1053C00082DF7047181CC04683DF7047181CC04638
:1053D00084DF7047181CC04685DF7047181CC04624
:1053E00086DF7047181CC04687DF7047181CC04610
:1053F00088DF7047181CC046A0DF7047181CC046E5
:10540000A1DF7047181CC046A2DF7047181CC046B9
:10541000A3DF7047181CC046A4DF7047181CC046A5
:10542000A5DF7047181CC046A6DF7047181CC04691
:10543000A7DF7047181CC046A8DF7047181CC0467D
:10544000A9DF7047181CC046AADF7047181CC04669
:1054500050DF7047181CC04651DF7047181CC0460B
:1054600052DF7047181CC04653DF7047181CC046F7
:1054700054DF7047181CC04655DF7047181CC046E3
:1054800080B582B000AF78607B681B781A1C7B689F
:1054900001331B781B029BB213439BB29BB2181CB7
:1054A000BD4602B080BDC04690B585B000AF786003
:1054B0003C1C0E347B68181CFFF7E2FF031C2380A2
:1054C0003B1C0E331A88012313405A1E9341DBB252
:1054D000181CBD4605B090BD80B582B000AF7860A5
:1054E00039603B689A887B685A82BD4602B080BDAD
:1054F00080B582B000AF786039607B68012252428B
:105500005A82BD4602B080BD80B584B000AF7860DD
:1055100039607B681B7D002B29D03B680633FB601C
:10552000FB681A887B685B899A4220D1FB681B8BD9
:10553000022B1CD17B681B68002B18D0FB681A3328
:10554000181CFFF7B1FF031C002B04D03B1C0833D1
:1055500000221A7003E03B1C083301221A707B689A
:105560001B6879683A1C0832081C111C9847BD4614
:1055700004B080BD80B582B000AF786039603B6810
:105580001B88112B0BD0502B10D0102B00D014E007
:105590007A683B68101C191CFFF79EFF0DE07A68C3
:1055A0003B68101C191CFFF7A3FF06E07A683B68F4
:1055B000101C191CFFF7A8FFC046BD4602B080BDF5
:1055C00090B595B000AF786039607B681B7D002B8B
:1055D00023D03B1C2833181C0021032206F098FC22
:1055E0003B1C28331A780F218A4301210A431A7081
:1055F0003B1C283319780F220A4010210A431A70E5
:105600003B1C28333A68527B5A703B1C28339A78EB
:1056100006218A4302210A439A703B1C2C33181C32
:1056200000211C2206F074FC3B1C2C331A7802214A
:105630000A431A707B681B7D1A1C01231340D9B2E0
:105640003B1C2C3301220A4012011978102081439F
:105650000A431A703B1C2C3300225A603B1C2C332B
:105660000022DA603B1C2C3300221A617B681B7D10
:10567000002B02D03A1C283200E000223B1C2C33C5
:105680005A613B1C2C3300229A613B1C10330122CF
:105690009A703B1C1033784A1A803B1C0C33181C40
:1056A0000021032206F034FC3B1C0C333A68927B49
:1056B0001A703B1C0C333A68D27B5A703B1C0C337B
:1056C0009A7806218A4302210A439A703B1C0C33C4
:1056D0009A7808218A439A703B1C0C339A781021DF
:1056E0008A439A703B1C0C339A7801218A439A7042
:1056F0003B681A7B3B1C0B331A703B1C1433181C81
:105700000021142206F004FC3B1C14333A1C103216
:105710001A603B1C14333A1C0C325A603B1C143385
:1057200001221A813B1C143300225A813B1C143382
:1057300001229A813B1C14333A1C0B321A617B689C
:1057400098887B680633391C2C313A1C1432FFF7D9
:105750005BFE031CFB64FB6C002B01D0FB6C87E041
:105760003B689B68002B00D17EE03B1C103301227C
:105770009A703B1C1033414A1A803B1C0C33181C96
:105780000021032206F0C4FB3B1C0C333A68127C58
:105790001A703B1C0C335A780F218A435A703B1CF9
:1057A0000C3359780F220A405A703B1C0C339A78FC
:1057B00006218A4302210A439A703B1C0C339A78D3
:1057C00008218A439A703B1C0C339A7810218A4333
:1057D0009A703B1C0C339A7801218A439A703B687B
:1057E0009B683C1C4B343A1C0832101C191C01F0FD
:1057F000E3F9031C23703B1C1433181C00211422F2
:1058000006F086FB3B1C14333A1C10321A603B1C1A
:1058100014333A1C0C325A603B1C4B331B789AB23F
:105820003B1C14331A813B1C143300225A813B1C4D
:1058300014331A893B1C14339A813B1C14333A1CD1
:1058400008321A617B68D9887B680E333A1C14329F
:10585000081C111C1A1CFFF7DBFD031CFB64FB6C0E
:10586000002B04D0FB6C03E07B680022DA8100236C
:10587000181CBD4615B090BD192A0000082900006B
:1058800080B584B000AF786039603B681A687B6887
:105890001A607B68012252425A823B681A797B68FF
:1058A0001A757B68FF221A743B1C083301229A7018
:1058B0003B1C08330E4A1A807B6804333A1C0832BA
:1058C0000120111C1A1CFFF797FD031CFB60FB68ED
:1058D000002B01D0FB6806E07A683B68101C191C9D
:1058E000FFF76EFE031C181CBD4604B080BDC04609
:1058F0000F18000080B588B000AF78600A1CFB1C50
:105900001A700023FB617B681A7CFB1C1B789A428F
:105910004FD03B1C1A3301221A80FB1C1A787B687B
:105920001A747B68D9883A1C1A32FB1C081C0021A7
:10593000FFF772FD031CFB61FB69002B01D0FB69C3
:1059400038E07B685A8A1D4B9A4230D07B681B7DB9
:10595000002B2CD03B1C0833181C0021102206F011
:10596000D7FA3B1C1A3301221A807B68DA883B1C69
:1059700008331A803B1C083301229A703B1C083301
:1059800000229A803B1C08333A1C1A329A603B1C56
:105990000833FA1CDA607B685A8A3B1C0833101CF7
:1059A000191CFFF741FD031CFB61C04601E0082301
:1059B000FB61FB69181CBD4608B080BDFFFF0000FD
:1059C00080B582B000AF021C3960BB1D1A80BB1DC0
:1059D0001B88DAB23B681A703B680133BA1D128823
:1059E000120A92B2D2B21A700223181CBD4602B03B
:1059F00080BDC04660DF7047181CC04661DF70473D
:105A0000181CC04662DF7047181CC04663DF704731
:105A1000181CC04664DF7047181CC04665DF70471D
:105A2000181CC04666DF7047181CC04667DF704709
:105A3000181CC04668DF7047181CC04669DF7047F5
:105A4000181CC0466ADF7047181CC0466BDF7047E1
:105A5000181CC0466CDF7047181CC0466DDF7047CD
:105A6000181CC0466EDF7047181CC0466FDF7047B9
:105A7000181CC04670DF7047181CC04671DF7047A5
:105A8000181CC04672DF7047181CC04673DF704791
:105A9000181CC04674DF7047181CC046B0DF704742
:105AA000181CC046B1DF7047181CC046B2DF7047F3
:105AB000181CC046A0DF7047181CC046A1DF704705
:105AC000181CC046A2DF7047181CC046A3DF7047F1
:105AD000181CC046A4DF7047181CC046A5DF7047DD
:105AE000181CC046A6DF7047181CC046A7DF7047C9
:105AF000181CC046A8DF7047181CC046A9DF7047B5
:105B0000181CC046AADF7047181CC046F0B593B0F9
:105B100000AFF863B963391C4731BB6B5A1E934120
:105B20000B703B1C47331A7801235340DBB2002B28
:105B300005D04F4B00202E211A1CFEF7F5FC391C16
:105B40004631FB6B5A1E93410B703B1C46331A784F
:105B500001235340DBB2002B05D0454B00202F2101
:105B60001A1CFEF7E1FCBB6B5C681B68DBB2FA6BCE
:105B70001370FB6B581CBB6B19685A68FF231B0220
:105B80000D1C1D400023161C1E403306290A3963D4
:105B90003A6B1A433A63330A7B633024E41923785F
:105BA0000370FB6B981CBB6B19685A68FF231B04BE
:105BB0000C1C1C40BC620023141C1C40FC62F96AD3
:105BC0000B04BA6A120C3A623C6A1C433C62F96AE2
:105BD000090C79622022D21913780370FB6BDA1C4E
:105BE000BB6B5C681B68190E0906B9610021201C9B
:105BF0000840F861F9690B02BC69240E3C61386900
:105C000018433861F969090E79613B7C1370FB6BAD
:105C10001A1DBB6B5C681B680021181C0840B8602B
:105C2000FF21201C0840F860F96809003960002352
:105C30007B603B781370FB6B5A1DBB6B9B68DBB2C0
:105C40001370FB6B9A1DBB6B9968FF231B020B4003
:105C50001B0ADBB21370FB6BDA1DBB6B9968FF2369
:105C60001B040B401B0CDBB21370BD4613B0F0BD20
:105C7000D4C2010080B584B000AF786039603B1CAD
:105C80000F3300221A703B1C0E333A68511E8A41B2
:105C90001A703B1C0E331B7801225340DBB2002BE1
:105CA00005D03E4B002046211A1CFEF73DFC3B1C54
:105CB0000D337A68511E8A411A703B1C0D331B78D4
:105CC00001225340DBB2002B05D0344B002047218A
:105CD0001A1CFEF729FC3B1C0F331B783A1C0F32B1
:105CE000591C11707A68D3183A6812781A703B6898
:105CF0005A883B1C0F331B787968CB18101C191C71
:105D0000FFF75EFE031C191C3B1C0F333A1C0F32BD
:105D100012788A181A703B689A883B1C0F331B78DC
:105D20007968CB18101C191CFFF74AFE031C191CBC
:105D30003B1C0F333A1C0F3212788A181A703B68DA
:105D4000DA883B1C0F331B787968CB18101C191CA0
:105D5000FFF736FE031C191C3B1C0F333A1C0F3295
:105D600012788A181A703B1C0C333A1C0F321278C6
:105D7000073A51424A411A703B1C0C331B780122EE
:105D80005340DBB2002B05D0044B00204F211A1CDE
:105D9000FEF7CAFBBD4604B080BDC046D4C20100B8
:105DA00080B594B000AFB9607B603B1C0E33011C22
:105DB00019803B1C0C331A803B1C4F33BA68511EB0
:105DC0008A411A703B1C4F331B7801225340DBB2CF
:105DD000002B05D0524B002068211A1CFEF7A4FBB3
:105DE0003B1C4E333A1C0C321288511E8A411A70E9
:105DF0003B1C4E331B7801225340DBB2002B05D0F5
:105E0000474B002069211A1CFEF78EFB3B1C2C33EC
:105E1000181C00211C2206F07BF83B1C2C331A783E
:105E200002210A431A703B1C2C3300225A603B1C8F
:105E30002C330022DA603B1C2C3300221A613B1CFD
:105E40002C3300225A613B1C2C3300229A613B1CEC
:105E5000483301229A703B1C48333A1C0E32128898
:105E60001A803B1C1433181C0021032206F050F842
:105E70003B1C14337A6812781A703B1C14337A680E
:105E800052785A703B1C14339A7806218A430221B7
:105E90000A439A703B1C14339A7808218A439A70FB
:105EA0003B1C14339A7810218A439A703B1C14339C
:105EB0009A7801218A439A703B1C1833181C0021E0
:105EC000142206F025F83B1C18333A1C48321A609D
:105ED0003B1C18333A1C14325A603B1C18333A1CD2
:105EE0000C3212881A813B1C183300225A813B1C49
:105EF00018333A1C0C3212889A813B1C1833BA684A
:105F00001A61084B1888391C2C313A1C1832BB6DA9
:105F1000FFF7D8FD031C181CBD4614B080BDC04659
:105F2000D4C201002C28002090B58BB002AF78605D
:105F30003B1C183301229A703B1C1833784A1A8094
:105F40003A1C1832774B0120111C1A1CFFF7B2FDC6
:105F5000031CFB61FB69002B01D0FB69DBE07B6864
:105F60001B88002B11D07B6859687B681A887B6876
:105F70003C336D486D4C0094FFF712FF031CFB612E
:105F8000FB69002B01D0FB69C5E07B681B89002BF6
:105F900011D07B68D9687B681A897B683C33644878
:105FA000644C0094FFF7FCFE031CFB61FB69002BB3
:105FB00001D0FB69AFE07B681B8A002B11D07B68A6
:105FC00059697B681A8A7B683C335B485B4C009458
:105FD000FFF7E6FE031CFB61FB69002B01D0FB69A8
:105FE00099E07B681B8B002B11D07B68D9697B689B
:105FF0001A8B7B683C335248524C0094FFF7D0FE1A
:10600000031CFB61FB69002B01D0FB6983E07B680B
:106010001B8C002B11D07B68596A7B681A8C7B68BB
:106020003C334948494C0094FFF7BAFE031CFB611E
:10603000FB69002B01D0FB696DE07B681B8D002B99
:1060400011D07B68D96A7B681A8D7B683C334048E5
:10605000404C0094FFF7A4FE031CFB61FB69002B7E
:1060600001D0FB6957E07B681B6B002B1AD07B6863
:106070001B6B3A1C1032101C191CFFF747FD7B6884
:106080003C3335493A1C103234480090081C111C2E
:106090000822FFF785FE031CFB61FB69002B01D082
:1060A000FB6938E07B685B6B002B14D07B685B6B13
:1060B00019687B685B6B1B791A1C7B683C3328482A
:1060C000284C0094FFF76CFE031CFB61FB69002B5E
:1060D00001D0FB691FE07B689B6B002B1AD07B68AB
:1060E0009B6B3A1C0832101C191CFFF7C3FD7B6820
:1060F0003C331D493A1C08321C480090081C111CF6
:106100000722FFF74DFE031CFB61FB69002B01D04A
:10611000FB6900E00023181CBD4609B090BDC046D5
:106120000A1800002C280020292A0000302800200E
:10613000242A000038280020252A000040280020BA
:10614000272A000048280020262A00005028002086
:10615000282A000058280020232A00006028002058
:106160002A2A000068280020502A000070280020F9
:1061700060DF7047181CC04661DF7047181CC046BE
:1061800062DF7047181CC04663DF7047181CC046AA
:1061900064DF7047181CC04665DF7047181CC04696
:1061A00066DF7047181CC04667DF7047181CC04682
:1061B00068DF7047181CC04669DF7047181CC0466E
:1061C0006ADF7047181CC0466BDF7047181CC0465A
:1061D0006CDF7047181CC0466DDF7047181CC04646
:1061E0006EDF7047181CC0466FDF7047181CC04632
:1061F00070DF7047181CC04671DF7047181CC0461E
:1062000072DF7047181CC04673DF7047181CC04609
:1062100074DF7047181CC046B0DF7047181CC046BA
:10622000B1DF7047181CC046B2DF7047181CC0466B
:1062300080DF7047181CC04681DF7047181CC046BD
:1062400082DF7047181CC04683DF7047181CC046A9
:1062500084DF7047181CC04685DF7047181CC04695
:1062600086DF7047181CC04687DF7047181CC04681
:1062700088DF7047181CC046A0DF7047181CC04656
:10628000A1DF7047181CC046A2DF7047181CC0462B
:10629000A3DF7047181CC046A4DF7047181CC04617
:1062A000A5DF7047181CC046A6DF7047181CC04603
:1062B000A7DF7047181CC046A8DF7047181CC046EF
:1062C000A9DF7047181CC046AADF7047181CC046DB
:1062D00050DF7047181CC04651DF7047181CC0467D
:1062E00052DF7047181CC04653DF7047181CC04669
:1062F00054DF7047181CC04655DF7047181CC04655
:1063000080B582B000AF021C3960BB1D1A80BB1D76
:106310001B88DAB23B681A703B680133BA1D1288D9
:10632000120A92B2D2B21A700223181CBD4602B0F1
:1063300080BDC04680B582B000AF78607B681B78B6
:106340001A1C7B6801331B781B029BB213439BB260
:106350009BB2181CBD4602B080BDC04690B585B04A
:1063600000AF78603C1C0E347B68181CFFF7E2FF1E
:10637000031C23803B1C0E331A88012313405A1E32
:106380009341DBB2181CBD4605B090BD80B582B00C
:1063900000AF786039603B689A887B681A84BD4694
:1063A00002B080BD80B582B000AF786039607B6894
:1063B000012252421A84BD4602B080BD80B584B02D
:1063C00000AF786039603B681B8B022B1CD17B6867
:1063D0001B68002B18D03B681A33181CFFF7BEFF50
:1063E000031C002B04D03B1C0C3300221A7003E06A
:1063F0003B1C0C3301221A707B681B6879683A1CBD
:106400000C32081C111C9847BD4604B080BDC04624
:1064100080B584B000AF786039603B680633FB60BC
:10642000FB681A887B689B899A4205D17A68FB6869
:10643000101C191CFFF7C2FFBD4604B080BDC0464A
:1064400080B582B000AF786039603B681B88112B43
:106450000BD0502B10D0102B00D014E07A683B6882
:10646000101C191CFFF792FF0DE07A683B68101CA6
:10647000191CFFF797FF06E07A683B68101C191C8F
:10648000FFF7C6FFC046BD4602B080BD80B586B0EE
:1064900000AFF8607A603B1C0A330A1C1A803B1C70
:1064A000173300221A703B1C163301221A70FB6846
:1064B0005B79002B07D03B1C17333A1C173212783C
:1064C00004210A431A70FA682223D35C002B07D0F8
:1064D0003B1C17333A1C1732127802210A431A70F8
:1064E0003B1C0A331B88FF2B1DD93B1C17333A1C5E
:1064F0001732127801210A431A703B1C16331B789D
:106500007A68D3183A1C0A321288101C191CFFF73B
:10651000F7FE031C191C3B1C16333A1C163212786A
:106520008A181A700DE03B1C16331B783A1C163281
:10653000591C11707A68D3183A1C0A321288D2B2E8
:106540001A70FA684C23D35A002B07D03B1C173320
:106550003A1C1732127810210A431A7000233B614B
:1065600036E03B1C16331B780233142B15D9FB681D
:10657000191C24313B6910335B00FA68D3181A1DCB
:10658000F8684C23C35A181C3B69C31A5B00081CEB
:10659000111C1A1C05F06AFC21E0FA683B691033F3
:1065A0005B00D3189A883B1C16331B787968CB188C
:1065B000101C191CFFF7A4FE031C191C3B1C1633EE
:1065C0003A1C163212788A181A703B6901333B6103
:1065D000FA684C23D35A1A1C3B699A42C1DCFA6808
:1065E0004C23D25A3B699BB2D31A99B2FA684C2316
:1065F000D1527B683A1C173212781A703B1C163342
:106600001B78181CBD4606B080BDC04680B596B04C
:1066100000AF786039603B1C3833181C002103221E
:1066200005F076FC3B1C38331A780F218A43012190
:106630000A431A703B1C383319780F220A40102184
:106640000A431A703B1C38333A68127B5A703B1C61
:1066500038339A7806218A4302210A439A703B1CF8
:106660003C33181C00211C2205F052FC3B1C3C331F
:106670001A7810210A431A703B1C3C3300225A60DE
:106680003B1C3C330022DA603B1C3C3300221A6185
:106690003B1C3C333A1C38325A613B1C3C330022D1
:1066A0009A613B1C203301229A703B1C2033334AF1
:1066B0001A803B1C1C33181C0021032205F028FC07
:1066C0003B1C1C333A68527B1A703B1C1C333A68E3
:1066D000927B5A703B1C1C339A7806218A43022114
:1066E0000A439A703B1C1C339A7808218A439A709B
:1066F0003B1C1C339A7810218A439A703B1C1C3334
:106700009A7801210A439A703B1C2433181C0021FB
:10671000142205F0FDFB3B1C24333A1C20321A6086
:106720003B1C24333A1C1C325A607A683B1C0833E9
:10673000101C00211A1CFFF7A9FE031C1A1C3B1C8D
:1067400024331A813B1C243300225A813B1C2433FE
:1067500014229A813B1C24333A1C08321A617B684C
:10676000D8887B680833391C3C313A1C2432FFF747
:106770008BFD031C181CBD4616B080BD372A0000D7
:1067800080B590B000AF786039603B1C2433181C92
:1067900000211C2205F0BCFB3B1C24331A7802218B
:1067A0000A431A703B1C243300225A603B1C2433DA
:1067B0000022DA603B1C243300221A613B1C243384
:1067C00000225A613B1C243300229A613B1C0C338B
:1067D00001229A703B1C0C332E4A1A803B1C083352
:1067E000181C0021032205F093FB3B1C08333A6878
:1067F000D27B1A703B1C08333A68127C5A703B1CDF
:1068000008339A7806218A4302210A439A703B1C76
:1068100008339A7808218A439A703B1C08339A7887
:1068200010218A439A703B1C08339A7801218A43CD
:106830009A703B1C1033181C0021142205F068FBD1
:106840003B1C10333A1C0C321A603B1C10333A1CB0
:1068500008325A603B1C103301221A813B1C103352
:1068600000225A813B1C103301229A813B689A68AE
:106870003B1C10331A617B68D8887B681033391C45
:1068800024313A1C1032FFF7FFFC031C181CBD46D4
:1068900010B080BD382A000080B584B000AF7860A9
:1068A00039603B681A687B681A603B681A797B68B4
:1068B0005A717B68012252421A847A68222300218D
:1068C000D1547A684C230021D1523B1C0833012259
:1068D0009A703B1C08331A4A1A807B6806333A1CAC
:1068E00008320120111C1A1CFFF7C6FC031CFB60B8
:1068F000FB68002B01D0FB681EE07A683B68101C27
:10690000191CFFF783FE031CFB60FB68002B01D002
:10691000FB6811E03B689B68002B0CD07A683B68F1
:10692000101C191CFFF72CFF031CFB60FB68002BDD
:1069300001D0FB6800E00023181CBD4604B080BDF8
:106940000D18000080B58EB000AF78600A1CBB1C2B
:106950001A807B681A8C2B4B9A424BD07968BB1CEF
:106960001A883B1C1C33081C111C1A1CFFF78EFDD7
:10697000031C1A1C3B1C32331A803B1C1A333A1C72
:10698000323212881A803B1C0833181C0021102256
:1069900005F0BEFA7B681A893B1C08331A803B1C41
:1069A000083301229A703B1C083300229A803B1C5A
:1069B00008333A1C1A329A603B1C08333A1C1C32CA
:1069C000DA607B681A8C3B1C0833101C191CFFF71B
:1069D0006BFC031C7B637B6B002B0AD13B1C1A33C3
:1069E0001B883A1C323212889A4202D00C237B63F5
:1069F00002E001E008237B637B6B181CBD460EB0F0
:106A000080BDC046FFFF000080B582B000AF786057
:106A10000A1CBB1C1A807A684C23D35A142B11D140
:106A20007B681A1C24327B682633101C191C262212
:106A300005F01CFA7A684C23D35A013B99B27A6864
:106A40004C23D1527A684C23D35A5A1C90B279689D
:106A50004C228852796810335B00BA1CCB1812881C
:106A60009A80BD4602B080BD80B582B000AF78602C
:106A70007A684C23D35A143B5A425341DBB2181C58
:106A8000BD4602B080BDC04680B582B000AF786020
:106A90000A1CFB1C1A707B681A8C074B9A4205D1A2
:106AA0007B68FA1C12785A71002300E00823181C36
:106AB000BD4602B080BDC046FFFF000080B582B079
:106AC00000AF78600A1CFB1C1A707A68F91C22233C
:106AD0000978D154BD4602B080BDC04680B584B0AF
:106AE00000AF78600A1CFB1C1A703B1C0E3301229D
:106AF0001A807B68198A3A1C0E32FB1C081C002184
:106B0000FFF7CAFB031C181CBD4604B080BDC0467D
:106B100060DF7047181CC04661DF7047181CC04614
:106B200062DF7047181CC04663DF7047181CC04600
:106B300064DF7047181CC04665DF7047181CC046EC
:106B400066DF7047181CC04667DF7047181CC046D8
:106B500068DF7047181CC04669DF7047181CC046C4
:106B60006ADF7047181CC0466BDF7047181CC046B0
:106B70006CDF7047181CC0466DDF7047181CC0469C
:106B80006EDF7047181CC0466FDF7047181CC04688
:106B900070DF7047181CC04671DF7047181CC04674
:106BA00072DF7047181CC04673DF7047181CC04660
:106BB00074DF7047181CC04680B584B000AF7860A1
:106BC00039603B1C0F3300221A703B1C0F331B78BB
:106BD0003A1C0F32591C11707A68D3183A6812782F
:106BE0001A703B1C0F331B783A1C0F32591C117062
:106BF0007A68D3183A6852781A703B1C0E333A1CE4
:106C00000F321278023A51424A411A703B1C0E333D
:106C10001B7801225340DBB2002B05D0064B00202D
:106C20001B211A1CFDF780FC3B1C0F331B78181C22
:106C3000BD4604B080BDC04608C3010080B582B027
:106C400000AF786039603B68181C05F0BFF9031C81
:106C50009AB27B681A807B683A685A60BD4602B077
:106C600080BDC04680B500AF6B46181CBD4680BDD8
:106C700080B582B000AF7860A023DA057B6801217F
:106C80009940A123DB00D150BD4602B080BDC04673
:106C900080B582B000AF7860A023DA057B6801215F
:106CA0009940024BD150BD4602B080BD0C0500009A
:106CB00080B586B000AF78600E4B1B687B61FFF734
:106CC000D1FF031C3B617A693B69D31AFB607B6887
:106CD000191C8831FB6880225200934201D980231D
:106CE0005B003A69081C111C1A1C05F07DF8BD46B2
:106CF00006B080BD0040010080B586B000AFF860EE
:106D0000B960BB1D1A803B1C173362221A701F4BDF
:106D100001221A801D4BFA685A601C4BBA1D12885A
:106D20005A801B4ABB68101C191C7F2205F056F9BB
:106D3000164A87230021D154144B181CFFF7B8FFC3
:106D4000144B5B6901330ED0124B5A6980235B05EB
:106D50001B699BB2101C191C04F09CFF031CDBB2C6
:106D6000023BDBB205E080235B055B69DBB2023BE3
:106D7000DBB206493A1C17321278181C03F0F0FAFD
:106D8000031C181CBD4606B080BDC04678280020F4
:106D9000802800200010001080B584B000AF78601B
:106DA0003B1C0B3362221A700023FB60314B5B6982
:106DB00001330ED02F4B5A6980235B051B699BB2B0
:106DC000101C191C04F066FF031CDBB2023BDBB293
:106DD00005E080235B055B69DBB2023BDBB27968CF
:106DE0003A1C0B32181C03F02BFB031CFB60FB68E6
:106DF000052B01D1002339E0FB68002B01D0FB6893
:106E000034E07B681B88002B01D100232EE00E208C
:106E1000FFF72EFFC0467B681B88002B04D0164B63
:106E20001B78DBB2002BF6D00E20FFF731FF114BA1
:106E30005B6901330ED00F4B5A6980235B051B69D8
:106E40009BB2101C191C04F025FF031CDBB2023B93
:106E5000DBB205E080235B055B69DBB2023BDBB2A2
:106E6000181C03F065FA031CFB60FB68181CBD4688
:106E700004B080BD00100010002A002080B500AFD3
:106E8000024B01221A70BD4680BDC046002A002078
:106E900080B582B000AFBB1C00221A70BB1C1B78EF
:106EA000DBB2002B21D0124B181CFFF775FF031C1F
:106EB0007B607B68002B02D07B68052B01D101220F
:106EC00000E00022FB1C1A70197801220A401A7097
:106ED000FB1C1B7801225340DBB2002B05D0054B75
:106EE00000207C211A1CFDF71FFBBD4602B080BDAF
:106EF0007828002044C3010060DF7047181CC0469A
:106F000061DF7047181CC04662DF7047181CC0461E
:106F100063DF7047181CC04664DF7047181CC0460A
:106F200065DF7047181CC04666DF7047181CC046F6
:106F300067DF7047181CC04668DF7047181CC046E2
:106F400069DF7047181CC0466ADF7047181CC046CE
:106F50006BDF7047181CC0466CDF7047181CC046BA
:106F60006DDF7047181CC0466EDF7047181CC046A6
:106F70006FDF7047181CC04670DF7047181CC04692
:106F800071DF7047181CC04672DF7047181CC0467E
:106F900073DF7047181CC04674DF7047181CC0466A
:106FA000B0DF7047181CC046B1DF7047181CC046E0
:106FB000B2DF7047181CC04680DF7047181CC046FF
:106FC00081DF7047181CC04682DF7047181CC0461E
:106FD00083DF7047181CC04684DF7047181CC0460A
:106FE00085DF7047181CC04686DF7047181CC046F6
:106FF00087DF7047181CC04688DF7047181CC046E2
:10700000A0DF7047181CC046A1DF7047181CC0469F
:10701000A2DF7047181CC046A3DF7047181CC0468B
:10702000A4DF7047181CC046A5DF7047181CC04677
:10703000A6DF7047181CC046A7DF7047181CC04663
:10704000A8DF7047181CC046A9DF7047181CC0464F
:10705000AADF7047181CC04650DF7047181CC04696
:1070600051DF7047181CC04652DF7047181CC046DD
:1070700053DF7047181CC04654DF7047181CC046C9
:1070800055DF7047181CC04680B582B000AF021CA7
:107090003960BB1D1A80BB1D1B88DAB23B681A70B1
:1070A0003B680133BA1D1288120A92B2D2B21A702A
:1070B0000223181CBD4602B080BDC04680B588B012
:1070C00000AFF860B9607A607B681B781D22D31A24
:1070D0009AB23B1C16331A807B681B780233BA685D
:1070E000D2183B1C1633101C191CFFF739FF031C68
:1070F000BB61BB69002B01D0BB6940E0FB685B78DA
:10710000002B12D0FB685B781A1C3B1C16331B88C3
:107110009A420AD2FB685B781A1C3B1C16331A8011
:107120003B1C1F3308221A7003E03B1C1F3309224B
:107130001A707B681B785A1CD1B27A681170BA68D1
:10714000D3183A1C16321288D2B20132D2B21A7057
:107150007B681B785A1CD1B27A681170BA68D31850
:107160003A1C1F3212781A707B681A783B1C16334F
:107170001B88DBB2D318DAB27B681A700023181CA4
:10718000BD4608B080BDC04690B585B000AF786000
:1071900039603B681B7804331F2B01DD0C2332E080
:1071A0003B1C0A33181CFFF7CBFE031CFB60FB687B
:1071B000002B01D0FB6826E03B681B785A1CD1B23B
:1071C0003A6811707A68D31803221A703B681B78EA
:1071D0005A1CD1B23A6811707A68D31819221A7001
:1071E0003B681C783B1C0A331A883B681B7879681B
:1071F000CB18101C191CFFF747FF031CE318DAB269
:107200003B681A700023181CBD4605B090BDC046EF
:1072100080B584B000AFF8607A603B603B1C0B33F4
:107220000A1C1A70FB685B68002B01D107233AE047
:107230003B681B789A1CFB681B88D3181F2B01DD49
:107240000C2330E03B681B785A1CD1B23A681170AD
:107250007A68D318FA681288D2B20132D2B21A70A0
:107260003B681B785A1CD1B23A6811707A68D318FF
:107270003A1C0B3212781A703B681B787A68D11866
:10728000FB685A68FB681B88081C111C1A1C04F058
:10729000ABFD3B681A78FB681B88DBB2D318DAB207
:1072A0003B681A700023181CBD4604B080BDC04660
:1072B00080B584B000AFB9607A603B1C0F33021C0C
:1072C0001A707B681B7803331F2B01DD0C2320E031
:1072D0007B681B785A1CD1B27A681170BA68D318CF
:1072E00002221A707B681B785A1CD1B27A6811701E
:1072F000BA68D3180A221A707B681B785A1CD1B25C
:107300007A681170BA68D3183A1C0F3212781A7062
:107310000023181CBD4604B080BDC04680B58AB0AD
:1073200000AFF8607B603B1C0B3319703B1C0A33C9
:107330001A703B1C233300221A703B1C22333A6B19
:1073400012781A7000237B627EE0FB685A687B6AC1
:107350009B00D3183A1C1432111C1A1C0423081C5D
:10736000111C1A1C04F040FD3A1C14323B1C1A3349
:10737000101C191C0022FFF77FFE031CFB61FB6938
:10738000002B01D0FB697BE03B1C1A331B783A1CB5
:107390000A3212789A4254D13B1C23331B78002BBB
:1073A00001D0002300E002233A1C1B3213703B6B18
:1073B0001B781A1C3B1C1A331B78D2183B1C1B333E
:1073C0001B78D3181F2B01DD0C2359E03B1C233302
:1073D0001B7801225340DBB2002B15D03B6B1B788E
:1073E0000133DAB23B6B1A703B6B1B785A1CD1B27B
:1073F0003A6B11707A68D3183A1C0B3212781A70F3
:107400003B1C233301221A703B6B1B787A68D3181C
:10741000391C14313A1C1A32081C111C1A1CFFF7B3
:107420002BFE031CFB61FB69002B01D0FB6927E0ED
:107430003B6B1A783B1C1A331B78D318DAB23B6BC0
:107440001A707B6A01337B62FB681B881A1C7B6A9B
:107450009A4200DD79E73B1C23331B78002B0ED0CA
:107460003B1C22331B787A68D3183A6B11783A1C8C
:10747000223212788A1AD2B2013AD2B21A7000239A
:10748000181CBD460AB080BD80B588B002AFF86058
:107490007B603B1C0B3319703B1C0A331A70F96874
:1074A0003B1C0B331A787B68386A0090081C111C4F
:1074B0000222FFF733FF031C7B617B69002B01D0A5
:1074C0007B6913E0F9683B1C0A331A787B68386AD9
:1074D0000090081C111C1022FFF720FF031C7B6189
:1074E0007B69002B01D07B6900E00023181CBD469E
:1074F00006B080BD80B582B000AF78607B681B8825
:10750000052B0AD97B681A88C8231B019A4206D921
:107510007B681A88164B9A4201D0072323E07B68C8
:107520005B88052B0AD97B685A88C8231B019A42BD
:1075300006D97B685A880E4B9A4201D0072312E085
:107540007B681A880A4B9A420CD07B685A88084B91
:107550009A4207D07B681A887B685B889A4201D977
:10756000072300E00023181CBD4602B080BDC046C2
:10757000FFFF000090B587B000AFF860B9607A6097
:107580007B681B7806331F2B01D90C2341E0FB6875
:10759000181CFFF7AFFF031C7B617B69002B01D038
:1075A0007B6936E07B681B785A1CD1B27A6811700F
:1075B000BA68D31805221A707B681B785A1CD1B29E
:1075C0007A681170BA68D31812221A707B681C7816
:1075D000FB681A887B681B78B968CB18101C191CCB
:1075E000FFF752FD031CE318DAB27B681A707B6860
:1075F0001C78FB685A887B681B78B968CB18101C0C
:10760000191CFFF741FD031CE318DAB27B681A70FE
:107610000023181CBD4607B090BDC04690B587B08A
:1076200000AFF860B9607A60FB689B88DAB23B1CF7
:10763000173302321A707B681B789A1C3B1C173375
:107640001B78D3181F2B01DD0C2349E07B681B78C6
:107650005A1CD1B27A681170BA68D3183A1C173222
:1076600012780132D2B21A707B681B785A1CD1B2E0
:107670007A681170BA68D318FF221A707B681C7878
:10768000FB681A887B681B78B968CB18101C191C1A
:10769000FFF7FAFC031CE318DAB27B681A70FB6888
:1076A0009B88002B1BD0FB689B68002B01D1072314
:1076B00016E07B681B78BA68D118FB689A68FB688B
:1076C0009B88081C111C1A1C04F08EFB7B681A781E
:1076D000FB689B88DBB2D318DAB27B681A70002390
:1076E000181CBD4607B090BD90B589B000AFF860DA
:1076F000B9607A60FB681B6B002B01D107236FE038
:107700003B1C1F3300221A7061E0FB68196B3B1CA5
:107710001F331A78131C5B009B189B00CB18BB61AE
:10772000BB699B88DAB23B1C173302321A707B6844
:107730001B785A1CD1B27A681170BA68D3183A1CF7
:10774000173212780132D2B21A707B681B785A1C39
:10775000D1B27A681170BA68D31816221A707B6891
:107760001C78BB691A887B681B78B968CB18101C19
:10777000191CFFF789FC031CE318DAB27B681A7046
:10778000BB699B88002B1BD0BB699B68002B01D178
:10779000072325E07B681B78BA68D118BB699A6813
:1077A000BB699B88081C111C1A1C04F01DFB7B681C
:1077B0001A78BB699B88DBB2D318DAB27B681A707F
:1077C0003B1C1F331A783B1C1F3301321A70FA68B6
:1077D0003423D35C3A1C1F3212789A4295D300238B
:1077E000181CBD4609B090BD80B588B002AFF860E6
:1077F000B9607A6000237B617B6800221A70FB68A5
:107800001B78002B0ED0F968BA687B68081C111C25
:107810001A1CFFF753FC031C7B617B69002B01D012
:107820007B69B8E0FB689B78002B0CD0BA687B685A
:10783000101C191CFFF7A8FC031C7B617B69002B43
:1078400001D07B69A7E0FB689B88002B0ED0FB680A
:10785000191DBA687B68081C0121FFF7D9FC031CBD
:107860007B617B69002B01D07B6994E0FB68DB685E
:10787000002B11D0FB68DB681B7859B2BA687B68B3
:10788000081C111C1A1CFFF713FD031C7B617B698C
:10789000002B01D07B697EE0FB681B8A002B11D096
:1078A000FB681A1C1032BB6879680091101C022119
:1078B0000622FFF7E9FD031C7B617B69002B01D0E9
:1078C0007B6968E0FB681B8B002B11D0FB681A1CDE
:1078D0001832BB6879680091101C03210722FFF75A
:1078E000D3FD031C7B617B69002B01D07B6952E0D7
:1078F000FB681B8C002B11D0FB681A1C2032BB6864
:1079000079680091101C14211522FFF7BDFD031C9E
:107910007B617B69002B01D07B693CE0FB689B6A43
:10792000002B0FD0FB68996ABA687B68081C111C91
:107930001A1CFFF71FFE031C7B617B69002B01D023
:107940007B6928E0FB68DB6A002B0FD0FB68D96AF3
:10795000BA687B68081C111C1A1CFFF75FFE031C29
:107960007B617B69002B01D07B6914E0FA683423CA
:10797000D35C002B0ED0F968BA687B68081C111C18
:107980001A1CFFF7B1FE031C7B617B69002B01D041
:107990007B6900E07B69181CBD4606B080BDC0460F
:1079A00080B582B000AF78607B689B88002B0AD0DE
:1079B0007B689B68002B06D07B689B681B781A1C31
:1079C0000423134001D1072300E00023181CBD4607
:1079D00002B080BD80B582B000AF78607B689B88C4
:1079E000002B01D0072300E00023181CBD4602B085
:1079F00080BDC04680B596B000AF786039603B1C52
:107A00004B3300221A703B1C4A3300221A707B68E9
:107A1000002B1FD07B68181CFFF7C2FF031CFB6400
:107A2000FB6C002B01D0FB6C46E079683A1C2832D5
:107A30003B1C4B33081C111C1A1CFFF7D5FE031C02
:107A4000FB64FB6C002B01D0FB6C35E03B1C283346
:107A50007B6501E000237B653B68002B1FD03B6802
:107A6000181CFFF7B7FF031CFB64FB6C002B01D055
:107A7000FB6C21E039683A1C08323B1C4A33081C75
:107A8000111C1A1CFFF7B0FE031CFB64FB6C002BDF
:107A900001D0FB6C10E03B1C08333B6501E0002388
:107AA0003B653B1C4B3319783B1C4A331B78786D84
:107AB0003A6DFFF729FA031C181CBD4616B080BDAD
:107AC00080B582B000AF786039603B681B7B002BCB
:107AD00007D03B685A687B681A607B6800221A717D
:107AE00006E03B681A687B681A607B6801221A719D
:107AF000BD4602B080BDC04680B582B000AF7860A0
:107B000039607B681B79002B18D03B685A687B680A
:107B10001B68D21A3B689B689A4207D97B681A682F
:107B20003B689B68D2187B681A601FE03B685A6804
:107B30007B681A607B6800221A7117E07B681A68FC
:107B40003B681B68D21A3B689B689A4207D97B68DE
:107B50001A683B689B68D21A7B681A6006E03B682B
:107B60001A687B681A607B6801221A717B681B683F
:107B7000181CBD4602B080BD60DF7047181CC046AF
:107B800061DF7047181CC04662DF7047181CC04692
:107B900063DF7047181CC04664DF7047181CC0467E
:107BA00065DF7047181CC04666DF7047181CC0466A
:107BB00067DF7047181CC04668DF7047181CC04656
:107BC00069DF7047181CC0466ADF7047181CC04642
:107BD0006BDF7047181CC0466CDF7047181CC0462E
:107BE0006DDF7047181CC0466EDF7047181CC0461A
:107BF0006FDF7047181CC04670DF7047181CC04606
:107C000071DF7047181CC04672DF7047181CC046F1
:107C100073DF7047181CC04674DF7047181CC046DD
:107C2000B0DF7047181CC046B1DF7047181CC04653
:107C3000B2DF7047181CC04680DF7047181CC04672
:107C400081DF7047181CC04682DF7047181CC04691
:107C500083DF7047181CC04684DF7047181CC0467D
:107C600085DF7047181CC04686DF7047181CC04669
:107C700087DF7047181CC04688DF7047181CC04655
:107C8000A0DF7047181CC046A1DF7047181CC04613
:107C9000A2DF7047181CC046A3DF7047181CC046FF
:107CA000A4DF7047181CC046A5DF7047181CC046EB
:107CB000A6DF7047181CC046A7DF7047181CC046D7
:107CC000A8DF7047181CC046A9DF7047181CC046C3
:107CD000AADF7047181CC04650DF7047181CC0460A
:107CE00051DF7047181CC04652DF7047181CC04651
:107CF00053DF7047181CC04654DF7047181CC0463D
:107D000055DF7047181CC04620DF7047181CC0465E
:107D100021DF7047181CC04622DF7047181CC04680
:107D200023DF7047181CC04624DF7047181CC0466C
:107D300025DF7047181CC04626DF7047181CC04658
:107D400027DF7047181CC04628DF7047181CC04644
:107D500029DF7047181CC0462ADF7047181CC04630
:107D60002BDF7047181CC0462CDF7047181CC0461C
:107D70002DDF7047181CC0462EDF7047181CC04608
:107D80002FDF7047181CC04632DF7047181CC046F2
:107D900033DF7047181CC04630DF7047181CC046E0
:107DA00031DF7047181CC04634DF7047181CC046CE
:107DB00035DF7047181CC04636DF7047181CC046B8
:107DC00037DF7047181CC04638DF7047181CC046A4
:107DD00039DF7047181CC0463ADF7047181CC04690
:107DE0003BDF7047181CC0463CDF7047181CC0467C
:107DF0003EDF7047181CC0463FDF7047181CC04666
:107E000040DF7047181CC0463DDF7047181CC04655
:107E100041DF7047181CC04642DF7047181CC0463F
:107E200043DF7047181CC04644DF7047181CC0462B
:107E300045DF7047181CC04646DF7047181CC04617
:107E400047DF7047181CC04648DF7047181CC04603
:107E500049DF7047181CC0464ADF7047181CC046EF
:107E60004BDF7047181CC04610DF7047181CC04617
:107E700011DF7047181CC04612DF7047181CC0463F
:107E800013DF7047181CC04680B582B000AF786021
:107E90007A68032313405A425341DBB2181CBD4693
:107EA00002B080BD80B584B000AFF8607A603B1C42
:107EB0000A330A1C1A803B1C0A331A887B68101C80
:107EC000191CFCF73FFBBD4604B080BD80B586B0F1
:107ED00000AFF860B9603B60BB1D1A80BB68181C1E
:107EE000FFF7D2FF031C01225340DBB2002B01D06D
:107EF000072322E0BB68002B01D107231DE0114BB3
:107F0000BA681A60104BBA1D12881A800F4B3A6873
:107F10001A600F4B3A6A1A60FA680E4B101C191C53
:107F2000FFF7A2FF031C7B617B69002B01D07B69FB
:107F300003E01620FFF7F4FE031C181CBD4606B034
:107F400080BDC0460C2A0020102A0020042A0020F0
:107F5000082A0020A57E010080B582B000AF124B38
:107F60001A88BB1C1A80114B1A68BB1C101C191CE8
:107F7000FFF7B2FE031C7B607B68052B10D07B688B
:107F8000002B06D07A680A4B101C5F211A1CFCF7E4
:107F9000CBFA084B1A68054B1B68181C9047DEE7A4
:107FA000BD4602B080BDC046102A00200C2A002029
:107FB00070C30100042A002080B582B000AF0E4BD0
:107FC0001B68002B12D00C4B1B689847031C7B606E
:107FD0007B683B603B68002B07D03A68074B101C5E
:107FE00071211A1CFCF7A0FA02E001E0FFF7B4FFD0
:107FF000BD4602B080BDC046082A002070C3010003
:1080000060DF7047181CC04661DF7047181CC0460F
:1080100062DF7047181CC04663DF7047181CC046FB
:1080200064DF7047181CC04665DF7047181CC046E7
:1080300066DF7047181CC04667DF7047181CC046D3
:1080400068DF7047181CC04669DF7047181CC046BF
:108050006ADF7047181CC0466BDF7047181CC046AB
:108060006CDF7047181CC0466DDF7047181CC04697
:108070006EDF7047181CC0466FDF7047181CC04683
:1080800070DF7047181CC04671DF7047181CC0466F
:1080900072DF7047181CC04673DF7047181CC0465B
:1080A00074DF7047181CC046B0DF7047181CC0460C
:1080B000B1DF7047181CC046B2DF7047181CC046BD
:1080C00080DF7047181CC04681DF7047181CC0460F
:1080D00082DF7047181CC04683DF7047181CC046FB
:1080E00084DF7047181CC04685DF7047181CC046E7
:1080F00086DF7047181CC04687DF7047181CC046D3
:1081000088DF7047181CC046A0DF7047181CC046A7
:10811000A1DF7047181CC046A2DF7047181CC0467C
:10812000A3DF7047181CC046A4DF7047181CC04668
:10813000A5DF7047181CC046A6DF7047181CC04654
:10814000A7DF7047181CC046A8DF7047181CC04640
:10815000A9DF7047181CC046AADF7047181CC0462C
:1081600050DF7047181CC04651DF7047181CC046CE
:1081700052DF7047181CC04653DF7047181CC046BA
:1081800054DF7047181CC04655DF7047181CC046A6
:1081900080B582B000AF78607B681B781A1C7B6862
:1081A00001331B781B029BB213439BB29BB2181C7A
:1081B000BD4602B080BDC04690B585B000AF7860C6
:1081C0003C1C0E347B68181CFFF7E2FF031C238065
:1081D0003B1C0E331A88012313405A1E9341DBB215
:1081E000181CBD4605B090BD80B582B000AF786068
:1081F0007B685A88084B1B889A4207D37B685A8849
:10820000054B5B889A4201D8012300E00023181C2B
:10821000BD4602B080BDC046302A002080B586B081
:1082200000AF7860294B1A88294B9A424BD0294BD2
:108230001B780133DAB2274B1A70274B1A7B254B78
:108240001B789A4216D3214B1A88244B101C191CF8
:10825000FFF7EAFE031C7B617B69002B09D01E4BF4
:108260009B69002B05D01C4B9B697A69101C9847B1
:1082700029E028E0174B00221A70174B1B7C002BBB
:1082800013D0124B1B88181C3B21FFF7D1FE031C97
:108290003B613B69002B08D00F4B9B69002B04D03E
:1082A0000D4B9B693A69101C98470B4B5B69002B7F
:1082B00009D03B1C0C3300221A70074B5B693A1C37
:1082C0000C32101C9847BD4606B080BD3A2A0020EB
:1082D000FFFF0000382A0020142A0020302A002046
:1082E00090B585B000AF7860214B7A6813CA13C38C
:1082F00013CA13C312681A601E4B00221A707B68DF
:108300001B68002B15D07B681B681B4A111C1A1CAC
:108310000823081C111C1A1C03F066FD164B181CC0
:10832000FFF796FE031CFB60FB68002B0CD0FB687C
:1083300019E0114B181CFFF78FFE031CFB60FB6854
:10834000002B01D0FB680EE00C4B012252421A8038
:108350000B4B00221A700B4A0B4B101C00211A1CED
:1083600003F0BCFA031C181CBD4605B090BDC04606
:10837000142A0020482A0020302A00203A2A00200F
:10838000382A0020442A00201D82010080B500AF59
:10839000044B1B68181C03F05FFB031C181CBD4634
:1083A00080BDC046442A002080B584B000AF284B71
:1083B000181CFFF719FF031C01225340DBB2002BEE
:1083C00033D0244B1B78002B0CD0234B5B69002B44
:1083D0002AD03B1D00221A701F4B5B693A1D101CEE
:1083E00098472EE01D4B1B78002B03D11A4B5B687E
:1083F000FB6002E0184B9B68FB60194B1A68FB6836
:10840000101C191C002203F0E1FA031CBB60BB68BE
:10841000002B09D0104B9B69002B05D00E4B9B699C
:10842000BA68101C98470CE00BE00B4B5B69002B03
:1084300007D03B1C01221A70074B5B693A1C101CC9
:108440009847044B00221A70BD4604B080BDC04658
:108450003C2A0020482A0020142A0020382A002024
:10846000442A002080B582B000AF78607B689A888B
:108470000B4B1A800B497A680E23D2180823081C6C
:10848000111C1A1C03F0B0FC074B00221A70074B9A
:10849000DB89002B01D1FFF787FFBD4602B080BD0D
:1084A0003A2A00203C2A0020382A0020142A0020E2
:1084B00080B584B000AF78600E4B012252421A8022
:1084C0000D4B00221A700D4B1B68181C03F0C4FAE8
:1084D000031CFB60FB68002B08D0094B9B69002B39
:1084E00004D0074B9B69FA68101C9847BD4604B03E
:1084F00080BDC0463A2A0020382A0020442A0020A5
:10850000142A002080B584B000AF78607B68063301
:10851000FB60FB681A88144BDB899A4221D1FB6807
:108520001B8B022B1DD1FB681A33181CFFF744FE6E
:10853000031C002B02D0FFF737FF12E00B4B1B6828
:10854000181C03F089FA031CBB60BB68002B08D021
:10855000054B9B69002B04D0034B9B69BA68101C28
:108560009847BD4604B080BD142A0020442A00204C
:1085700080B582B000AF786007497A680623D218C8
:108580000823081C111C1A1C03F02EFCFFF70CFF1B
:10859000BD4602B080BDC0463C2A002080B582B0F6
:1085A00000AF78607B681B88112B0DD002DC102B8C
:1085B00005D018E0122B11D0502B0AD013E07B68A5
:1085C000181CFFF74FFF0EE07B68181CFFF770FFC9
:1085D00009E07B68181CFFF795FF04E07B68181C16
:1085E000FFF7C6FFC046BD4602B080BD80B584B06F
:1085F00000AF7860204A7B68111C1A1C0823081CF5
:10860000111C1A1C03F0F0FB1B4B181CFFF720FD7C
:10861000031CFB60FB68002B29D1184B181CFFF7CB
:10862000E3FD031C01225340DBB2002B0FD0144B9F
:1086300001221A70134B1A880F4B101C191CFFF7DC
:10864000F3FC031CFB60104B01221A700FE00F4B70
:108650005B69002B09D03B1C083301221A700B4BBD
:108660005B693A1C0832101C98470023FB60FB68CA
:10867000181CBD4604B080BD302A00203C2A0020D2
:10868000482A00203A2A0020382A0020142A0020F4
:1086900060DF7047181CC04661DF7047181CC04679
:1086A00062DF7047181CC04663DF7047181CC04665
:1086B00064DF7047181CC04665DF7047181CC04651
:1086C00066DF7047181CC04667DF7047181CC0463D
:1086D00068DF7047181CC04669DF7047181CC04629
:1086E0006ADF7047181CC0466BDF7047181CC04615
:1086F0006CDF7047181CC0466DDF7047181CC04601
:108700006EDF7047181CC0466FDF7047181CC046EC
:1087100070DF7047181CC04671DF7047181CC046D8
:1087200072DF7047181CC04673DF7047181CC046C4
:1087300074DF7047181CC046B0DF7047181CC04675
:10874000B1DF7047181CC046B2DF7047181CC04626
:1087500080DF7047181CC04681DF7047181CC04678
:1087600082DF7047181CC04683DF7047181CC04664
:1087700084DF7047181CC04685DF7047181CC04650
:1087800086DF7047181CC04687DF7047181CC0463C
:1087900088DF7047181CC046A0DF7047181CC04611
:1087A000A1DF7047181CC046A2DF7047181CC046E6
:1087B000A3DF7047181CC046A4DF7047181CC046D2
:1087C000A5DF7047181CC046A6DF7047181CC046BE
:1087D000A7DF7047181CC046A8DF7047181CC046AA
:1087E000A9DF7047181CC046AADF7047181CC04696
:1087F00050DF7047181CC04651DF7047181CC04638
:1088000052DF7047181CC04653DF7047181CC04623
:1088100054DF7047181CC04655DF7047181CC0460F
:1088200080B582B000AF786039607B681B0C1A0499
:10883000094B9A4205D17B689AB23B681A800023A3
:1088400005E07B68013301D1052300E00B23181CF0
:10885000BD4602B080BDC0460000DE4590B585B083
:1088600000AF7860344B1B781C1C80235B051B69B0
:108870009BB2181C502103F00DFA031C9BB29C42C2
:1088800001D3042353E02C4B1B78002B16D100207E
:108890000021002201F004FC031C1A1C274B1A8043
:1088A000274B1A78274B101C191C01F025FE031CBE
:1088B000FB60FB68002B01D0FB6838E0214B1B6894
:1088C0001A1D7B68101C191C132201F003FD031CE8
:1088D000FB60FB68002B01D0FB6828E07A68174B2F
:1088E000101C4C211A1C01F0DBFB031C1A1C134B3F
:1088F0001A80144B1A68114B1B8813490B43101C28
:10890000191C01F0D7FC031CFB60FB68002B01D095
:10891000FB680CE00B4B1B681A1C5032094B1A60A9
:10892000054B1B780133DAB2034B1A700023181C75
:10893000BD4605B090BDC046242E0020162E002056
:10894000502A00201C2E00200000DE4590B585B086
:1089500000AF7860344B1B781C1C80235B051B69BF
:108960009BB2181C502103F095F9031C9BB29C424A
:1089700001D3042353E02C4B1B78002B16D100208D
:108980000021002201F08CFB031C1A1C274B1A80CB
:10899000274B5A78274B101C191C01F0ADFD031C06
:1089A000FB60FB68002B01D0FB6838E0214B1B68A3
:1089B0001A1D7B68101C191C072201F08BFC031C7C
:1089C000FB60FB68002B01D0FB6828E07A68174B3E
:1089D000101C1C211A1C01F063FB031C1A1C134BF6
:1089E0001A80144B1A68114B1B8813490B43101C37
:1089F000191C01F05FFC031CFB60FB68002B01D01D
:108A0000FB680CE00B4B1B681A1C2032094B1A60E8
:108A1000054B1B780133DAB2034B1A700023181C84
:108A2000BD4605B090BDC046252E0020182E002062
:108A3000502A0020202E00200000DE4580B584B0A2
:108A400000AF78602D4B1B78002B16D10020002141
:108A5000002201F025FB031C1A1C294B1A80294B0C
:108A60001A78294B101C191C01F046FD031CFB60F1
:108A7000FB68002B01D0FB683BE0234B1B681A68A6
:108A80003B1C0A33101C191CFFF7CAFE031CFB60B9
:108A9000FB68002B01D0FB682BE01B4B1B687A683E
:108AA000111C1A1D4C23081C111C1A1C03F09CF9E4
:108AB0007A68134B101C4C211A1C01F0F1FA031CAC
:108AC0001A1C0F4B1A800E4B1A883B1C0A331B884A
:108AD0009A420DD1094B1B780133DAB2074B1A7059
:108AE000094B1B681A1C5032074B1A60002300E028
:108AF0000B23181CBD4604B080BDC046242E0020A8
:108B0000162E0020502A00201C2E002090B585B083
:108B100000AF78602C4B1B78002B16D10020002171
:108B2000002201F0BDFA031C1A1C284B1A80284BA6
:108B30005A78284B101C191C01F0DEFC031CFB604A
:108B4000FB68002B01D0FB683AE0224B1B681A68D7
:108B50003B1C0A33101C191CFFF762FE031CFB6050
:108B6000FB68002B01D0FB682AE01A4B1A687B686F
:108B7000043213CA13C313CA13C312681A607A6883
:108B8000124B101C1C211A1C01F08AFA031C1A1C1F
:108B90000E4B1A800D4B1A883B1C0A331B889A42D5
:108BA0000DD1094B1B780133DAB2074B1A70094B10
:108BB0001B681A1C2032074B1A60002300E00B23AD
:108BC000181CBD4605B090BD252E0020182E002093
:108BD000502A0020202E002080B582B000AF0E4B1E
:108BE0001B78181C01F0A4FB031C7B607B68002B26
:108BF00001D07B680CE0084B5B78181C01F098FBF7
:108C0000031C7B607B68002B01D07B6800E00023A5
:108C1000181CBD4602B080BD502A002080B582B02D
:108C200000AF00200021002201F03AFA031C1A1CB8
:108C3000BB1C1A8000237B6011E07B6868225A43CA
:108C4000104BD218BB1C101C4C211A1C01F028FA26
:108C5000031C1A1CBB1C1A807B6801337B600A4B07
:108C60001B781A1C7B689A42E7DCBB1C1A88074BEE
:108C70001B88D31A5A1E9341DBB2181CBD4602B0A2
:108C800080BDC046C82A0020A02D0020162E00203E
:108C900080B582B000AF00200021002201F000FA70
:108CA000031C1A1CBB1C1A8000237B6014E07B6829
:108CB000682253431A1C4832104BD3181A1DBB1C90
:108CC000101C1C211A1C01F0EBF9031C1A1CBB1C04
:108CD0001A807B6801337B60094B1B781A1C7B6808
:108CE0009A42E4DCBB1C1A88064B1B88D31A5A1E16
:108CF0009341DBB2181CBD4602B080BDC82A0020DB
:108D0000A02D0020182E002080B584B000AF786020
:108D10000F4B5B6E002B08D00D4B5B6E142B01D9F3
:108D2000032310E00B4BFB6001E00023FB600A4BC8
:108D30001988074B5B6E9BB2FA68081C111C1A1C41
:108D4000FFF74EFD031C181CBD4604B080BDC04695
:108D5000602A0020B02A00205C2A002080B582B062
:108D600000AF00237B602A4B00221A70294B00229F
:108D70001A7044E07B6868225A43274BD3183B6043
:108D80003B685B7A5B07DB0FDBB2002B17D0214B14
:108D90001B781A1C3B681B68D9B2204BD200D154F7
:108DA0001C4B1B783A681E321C49DB00CB1804337D
:108DB0001A60184B1B780133DAB2164B1A703A68F6
:108DC0004223D35C022B17D0114B1B781A1C3B6833
:108DD0001B68D9B2124BD200D1540D4B1B783A68A4
:108DE00042320F49DB00CB1804331A60084B1B7862
:108DF0000133DAB2064B1A707B6801337B60094B92
:108E00001B781A1C7B689A42B4DCBD4602B080BD58
:108E1000142E0020152E0020C82A0020DC2D002052
:108E2000A42D0020A02D002080B586B000AF786072
:108E3000434B1B78062B01D904237CE0414A7B6815
:108E4000111D1A1C3223081C111C1A1C02F0CCFF25
:108E50007B68DA883B4BDA873A4B00225A66384BFC
:108E60001B781A1C374B1A60354B1B785A1CD1B231
:108E7000334A1170344968225A43324B89181A1CFC
:108E80006823081C111C1A1C02F0AEFFFFF766FFD6
:108E90002E4B01221A702E4B1B88181C0021002219
:108EA000FFF79EFC031C7B617B69002B01D07B6973
:108EB00041E0244B181CFFF7D1FC031C7B617B694C
:108EC000042B19D1234B5B68002B15D03B1C1033AE
:108ED00004221A701B4B1B68DAB23B1C10335A7009
:108EE000184BDA8F3B1C10335A801A4B5B683A1CC4
:108EF0001032101C984704E07B69002B01D07B697D
:108F000019E0144B5B68002B14D03B1C0C3300227F
:108F10001A700C4B1B68DAB23B1C0C335A70094BAD
:108F2000DA8F3B1C0C335A800A4B5B683A1C0C32BC
:108F3000101C98470023181CBD4606B080BDC046D3
:108F4000A02D0020602A0020C82A0020272E002003
:108F50005C2A0020502A002090B583B000AF1E4B41
:108F60001B683B603B68002B2FDB1C4B1B781A1CDB
:108F70003B689A4229DD1A4B1B78002B0CD019490B
:108F80003B6868225A43144B89181A1C4C23081C4E
:108F9000111C1A1C02F028FF134B1B78002B0FD05A
:108FA00010493A684823682042438A18D3180A4A6D
:108FB00004334C3213CA13C313CA13C312681A60A2
:108FC000FFF7CCFE00237B6001E003237B607B681E
:108FD000181CBD4603B090BD602A0020A02D0020C3
:108FE000272E0020C82A0020282E002080B584B01B
:108FF00000AF021CBB1D1A800023FB601CE014495B
:10900000FA683823682042438A18D318DB88BA1DCF
:1090100012889A420DD10F490D4AFB6868204343DC
:10902000D2186823081C111C1A1C02F0DDFE002354
:1090300009E0FB680133FB60074B1B781A1CFB68D7
:109040009A42DCDC0523181CBD4604B080BDC04636
:10905000C82A0020602A0020A02D002090B59FB0D3
:1090600000AF554B00221A7042E03B1D181CFFF761
:10907000E5FC031C3B673B6F052B3DD03B6F002B92
:1090800001D03B6F93E03B1D1B68FB664A4B1B788E
:109090001A1CFB6E9A4201DA0B2388E04749FB6EEB
:1090A00068225A433B1D89181A1C4C23081C111CAA
:1090B0001A1C02F099FE404B1B781A1CFB6E9A4258
:1090C00016D13E4AFB6E68214B43D318643300220D
:1090D0001A603A4AFB6E68214B43D3184C33012285
:1090E00052421A60344B1B780133DAB2324B1A7099
:1090F000314B1B78062BB8D900237B672CE03B1C37
:109100005033181CFFF702FD031C3B673B6F052B18
:1091100028D03B6F002B01D03B6F48E03B1C503305
:109120001A68254B1B789A4201DD0B233FE03B1C5C
:1091300050331A6821494823682042438A18D318BB
:109140003A1C5032043313CA13C313CA13C3126830
:109150001A607B6F01337B67174B1B781A1C7B6F80
:109160009A42CCDC144B1B787B671AE0134B7A6F66
:1091700068214A4301214942D150104A7B6F68213E
:109180004B43D318643300221A600C4A7B6F68216A
:109190004B43D3184C33012252421A607B6F013388
:1091A0007B677B6F062BE1DDFFF7D8FD0023181CE2
:1091B000BD461FB090BDC046A02D0020C82A00208B
:1091C00080B586B000AF78607B689A884F4B1A8074
:1091D0004F4B012252421A604D4842217A680623C1
:1091E0004118D2180723081C111C1A1C02F0FCFDA0
:1091F000474B00225A667B685B7BDB07DB0FDBB2E9
:10920000002B2DD07B685B7B1B065B0EDAB23B1C10
:1092100013331A703B1C13331B78062B08D83B1CE6
:1092200013331A783B4BD200D35C5BB2062B04DDC0
:10923000394B9B680320984741E03B1C13331A7855
:10924000344BD200D35C5BB23149344A682043438B
:10925000D2186823081C111C1A1C02F0C5FD2EE050
:1092600000237B6125E02E4A7B69DB00D3180433A1
:109270001B68FB60FB685A1C2A4B101C191C062239
:1092800002F08CFD031C002B10D1254B7A69D20013
:10929000D35C5BB21E49214A68204343D21868233D
:1092A000081C111C1A1C02F09FFD08E07B690133A9
:1092B0007B611D4B1B781A1C7B699A42D3DC144BD3
:1092C0001B6801331ED0194B00221A70184B002264
:1092D0001A70114B5B68002B14D03B1C0833012221
:1092E0001A700B4B1B68DAB23B1C08335A70084BE0
:1092F000DA8F3B1C08335A80074B5B683A1C0832F4
:10930000101C9847BD4606B080BDC0465C2A0020B0
:10931000602A0020DC2D0020502A0020C82A0020CE
:10932000A42D0020A32A0020142E0020272E002088
:10933000282E002080B584B000AF7860184B1B68E1
:1093400001330BD0174B1B781A1C0123134005D097
:10935000144B1B781A1C0223134009D0124B1B8894
:10936000181C00210022FFF73BFA031CFB600BE0F6
:109370000B4B181CFFF7C8FC031CFB60FB68002BA1
:1093800002D10A4B01221A70FB68002B04D0084B53
:109390009B68FA68101C9847BD4604B080BDC04663
:1093A000602A0020262E00205C2A0020282E002083
:1093B000502A002080B586B000AF7860364A7B68BE
:1093C000111D1A1C3223081C111C1A1C02F00CFD62
:1093D0007B68DA88304BDA872F4B1B6868225A4348
:1093E0002E4BD318181C0021682202F091FD2A4B45
:1093F0001B682A4968225A43274B89181A1C68237C
:10940000081C111C1A1C02F0EFFC234B181CFFF760
:1094100025FA031C7B617B69042B19D1204B5B6807
:10942000002B15D03B1C103304221A701A4B1B68FA
:10943000DAB23B1C10335A70174BDA8F3B1C1033D7
:109440005A80174B5B683A1C1032101C984707E093
:109450007B69002B04D0124B9B687A69101C9847DB
:109460000F4B5B68002B14D03B1C0C3303221A708B
:10947000094B1B68DAB23B1C0C335A70064BDA8F6F
:109480003B1C0C335A80064B5B683A1C0C32101C98
:109490009847BD4606B080BD602A0020C82A00203B
:1094A000502A002080B584B000AF78607B681B78BC
:1094B000002B00D02EE0194B1B781A1C01231340FF
:1094C00000D127E0164B1B6801331CD17B68DB8879
:1094D000181CFFF78BFD031CFB60FB68002B02D1FF
:1094E0000F23FB6005E07B68181CFFF79DFC031C45
:1094F000FB60FB68002B05D00A4B9B68FA68101CC8
:10950000984707E006E0084B01221A707B68181C98
:10951000FFF750FFBD4604B080BDC046262E002098
:10952000602A0020502A0020272E002080B584B019
:1095300000AF78607B68DB89181CFFF757FD031CC0
:10954000FB60FB68002B15D1244B01221A70244BC1
:109550001A88244B101C191C0022FFF7DDF8031C8D
:10956000FB60FB68002B2ED01F4B9B68FA68101C19
:10957000984728E0FB68052B25D11C4836217A68DE
:1095800006234118D2180C23081C111C1A1C02F0C7
:109590002BFC134B1B88181C00210022FFF7BCF882
:1095A000031CFB60FB68002B04D00F4B9B68FA6820
:1095B000101C98470A4B1B88181C00210022FFF73B
:1095C0000FF9031CFB60FB68002B04D0064B9B6863
:1095D000FA68101C9847BD4604B080BD272E0020B5
:1095E0005C2A00206A2A0020502A0020602A0020DD
:1095F00080B586B000AF78607B681B781B071B0FB7
:10960000DAB23B1C17331A707B681B781B061B0FE2
:10961000DAB23B1C16331A703B1C17331B78012B34
:1096200004D13B1C16331B78012B09D83B1C173384
:109630001B78022B36D13B1C16331B78002B31D004
:109640001A4B1B7801221343DAB2184B1A70184BCD
:10965000181CFFF759FB031C3B613B69002B05D02D
:10966000144B9B683A69101C984702E0124B012288
:109670001A70104B5B68002B14D03B1C0C33022279
:109680001A700B4B1B68DAB23B1C0C335A70084B38
:10969000DA8F3B1C0C335A80064B5B683A1C0C3249
:1096A000101C9847BD4606B080BDC046262E00203F
:1096B000602A0020502A0020282E002080B582B089
:1096C00000AF78607B689B78DB07DB0FDBB2002B99
:1096D00013D00B4B1B7802221343DAB2084B1A70DB
:1096E000084B1B68013308D0064B00225A66064B14
:1096F000181C0021142202F00BFCBD4602B080BDF4
:10970000262E0020602A0020B02A002080B582B0DA
:1097100000AF78601E4B1B7801225340DBB2002B58
:1097200003D01C4B9B68082098477B681B88103B24
:10973000422B29D89A00184BD3181B689F467B6888
:10974000181CFFF73DFD20E0144B00221A701CE0AE
:109750007B68181CFFF7EEFD17E07B680633181CCA
:10976000FFF7A0FE11E07B68181CFFF7DFFE0CE09E
:109770007B680633181CFFF7A1FF06E07B68063301
:10978000181CFFF735FF00E0C046BD4602B080BDA3
:109790004C2A0020502A0020A0C30100262E0020C1
:1097A00080B584B000AF564B1B7801225340DBB22A
:1097B000002B01D008239FE0524B1B68013324D0BB
:1097C000BB1D14221A80504B1988504ABB1D081C1F
:1097D000111C1A1CFFF708F8031CBB60BB68002BA8
:1097E00001D0BB6888E0474B1A68464BDA64BB1D62
:1097F0001B881A1C434B5A66FFF7AEFB031CBB6069
:10980000BB68002B01D0BB6876E0FFF707FA031CAA
:10981000002B29D03E4B1B78181C00F089FD031C3F
:10982000BB60BB68002B01D0BB6865E0394B0022F0
:109830001A700023FB6011E0FB6868225A43364B24
:10984000D318181CFFF70AF8031CBB60BB68002B79
:1098500001D0BB6850E0FB680133FB602F4B1B78E5
:109860001A1CFB689A42E7DCFFF712FA031C002B74
:109870002CD0274B5B78181C00F05AFD031CBB60F2
:10988000BB68002B01D0BB6836E0254B00221A7064
:109890000023FB6014E0FB68682253431A1C483223
:1098A0001D4BD3180433181CFFF750F8031CBB6082
:1098B000BB68002B01D0BB681EE0FB680133FB6076
:1098C000164B1B781A1CFB689A42E4DC0E4B0122F3
:1098D00052421A800B4B012252421A60094B01225C
:1098E0005242DA64074B00225A660E4B00221A706D
:1098F0000D4B00221A700023181CBD4604B080BD19
:109900004C2A0020602A00205C2A0020B02A002077
:10991000502A0020242E0020C82A0020A02D00203C
:10992000252E0020272E0020282E002090B583B061
:1099300000AF1E4B5B6E002B32D1BB1C14221A8071
:109940001B4B19881B4ABB1C081C111C1A1CFEF758
:109950004BFF031C7B607B68002B01D07B6820E001
:10996000124B1A68114BDA64BB1C1B881A1C0F4B74
:109970005A660E4B1A6810494823682042438A18D9
:10998000D3180A4A04334C3213CA13C313CA13C37D
:1099900012681A60094B181CFEF7D8FF031C00E080
:1099A0000823181CBD4603B090BDC046602A0020A5
:1099B0005C2A0020B02A0020C82A0020AC2A0020FF
:1099C00080B500AF0B4B1B7801225340DBB2002B5C
:1099D00001D008230BE0084B00221A70074B00222D
:1099E0001A70074B00221A70FFF7F6F8031C181CB8
:1099F000BD4680BD4C2A0020A02D0020242E002032
:109A0000252E002090B583B000AF021C3960FB1DED
:109A10001A70FB1D1B785BB2013315D0FB1D0022B1
:109A20009A56164B1B789A420EDA3B68002B0BD0E5
:109A3000FB1D00229A5612494023682042438A188F
:109A4000D3189B78022B01D1072312E0FB1D0022C3
:109A50009A5639680A484023682462438218D2180B
:109A60000223D2180723081C111C1A1C02F0BCF98F
:109A70000023181CBD4603B090BDC046A02D002099
:109A8000C82A002080B584B000AF78600023FB6056
:109A90000CE0244AFB68DB00D31804331968224B1E
:109AA000FA689200D150FB680133FB601F4B1B78B2
:109AB0001A1CFB689A42ECDC0023FB600CE01C4A99
:109AC000FB68DB00D318043319681A4BFA6892005C
:109AD000D150FB680133FB60174B1B781A1CFB68E5
