:1000000000400020B1020000ED020000EF020000FD
:1000100000000000000000000000000000000000E0
:10002000000000000000000000000000F1020000DD
:100030000000000000000000F3020000F5020000D4
:10004000F7020000F7020000F7020000F7020000CC
:10005000F702000000000000F7020000F7020000B5
:10006000F7020000F7020000F7020000F7020000AC
:10007000F7020000F7020000F7020000F70200009C
:10008000F7020000F7020000F7020000F70200008C
:10009000F7020000F7020000F7020000F70200007C
:1000A000F7020000F702000000000000000000005E
:1000B0000000000000000000000000000000000040
:1000C00010B5064C2378002B07D1054B002B02D02E
:1000D000044800E000BF0123237010BD4404002049
:1000E000000000007006000008B5084B002B03D08C
:1000F0000748084900E000BF07480368002B03D009
:10010000064B002B00D0984708BDC04600000000F9
:100110007006000048040020400400200000000099
:10012000164B002B00D1144B9D46402292029A1A86
:10013000924600218B460F461348144A121A00F0CB
:100140000FF90F4B002B00D098470E4B002B00D01F
:1001500098470020002104000D000D48002802D01F
:100160000C4800F0F3F900F0D7F82000290000F067
:1001700013F800F0C1F8C04600000800004000205D
:100180000000000000000000440400206004002083
:100190004D0500005D050000A023E921DB050122DB
:1001A000C90070B55A500849084E5A50002401251C
:1001B000A31C2A1C9A40D3B23370013464202C4013
:1001C00000F006F8F4E7C0464C07000006050050B2
:1001D00082B00190019B002B17D0019B013B019342
:1001E0000B4BC046C046C046C046C046C046C0468F
:1001F000C046C046C046C046C046C046C046013B99
:10020000002BEED1019B002BE7D102B07047C04616
:10021000E7030000014A024B1A6070470024F40013
:10022000040000201B4B1B78012B00D070471A4B99
:100230001B681A07FAD1194AF02312681A4003D032
:10024000102A01D0302A03D1154A12681A4210D060
:10025000124AF02312681A40402AE7D1104A126865
:100260001A42E3D1C12380220121DB00D205D15003
:10027000DCE70C4A0C4B1A600C4B802212021A600D
:10028000044B1B78012BD1D1034B1B681A07DFD01D
:10029000CCE7C046E00F00F0E40F00F0E80F00F0FC
:1002A000EC0F00F0DFFF07C004050040186C0040B1
:1002B000084802680F210A4302600749074A084BB1
:1002C0009B1A03DD043BC858D050FBDC054880472F
:1002D00005480047240500407C060000000000207F
:1002E000440400202502000021010000FEE7FEE793
:1002F000FEE7FEE7FEE7FEE710B50021041C00F074
:1003000099F8044B1868C36B002B00D09847201C49
:1003100000F09CF96C06000070B50D4E0D4D0024E8
:10032000AD1BAD1005D0A300F35801349847A5428A
:10033000F9D100F08DF9084E084D0024AD1BAD1029
:1003400005D0A300F35801349847A542F9D170BDF8
:100350003404002034040020340400203C04002035
:10036000F0B54F464646C0B483B0830752D0541E02
:10037000002A4AD0CEB2031C032503E0621E002CE3
:1003800043D0141C01335A1E16702B42F6D1032C95
:1003900033D9FF250D402A0215432A0415430F2C9B
:1003A0001AD9271C103F3F09B9463F01B84610270C
:1003B000FF18BC4646461A1C664415605560956099
:1003C000D5601032B242F8D14F4601373F010F22BB
:1003D000DB191440032C10D9271F1E1DBF080196DE
:1003E000BE00B446019E1A1C664420C2B242FCD133
:1003F0000137BF000322DB191440002C05D0C9B21D
:100400001C1919700133A342FBD103B00CBC9046F8
:100410009946F0BD031C141CB9E7C04608B5034B50
:10042000002B02D0024800F091F808BD0000000047
:100430005D050000F0B55F4656464D464446F0B4B3
:10044000404B85B01B68029001934933FF330393FF
:100450000F1C0198A421490042589046002A4AD016
:100460000398814641464E68741E41D44546A30018
:100470008835ED18C620C42301365B004000B60065
:100480009B4682464644C344C24408E02B1C80334A
:100490001B68BB4205D0043D043E013C28D3002F1D
:1004A000F4D141464A683368013AA2422CD0002276
:1004B0003260002BEFD0404659464068012209685F
:1004C000A240009011421DD05046006810421DD13C
:1004D00002982968984741464968009A9142B8D1E4
:1004E0004A4612684245B4D1043D043E013CD6D28E
:1004F000154A002A0DD105B03CBC90469946A2464B
:10050000AB46F0BD9847E6E74C60D2E728689847CD
:10051000E1E743465B684046002B0DD10368002BA2
:100520000ED049460B6000E000BF4B461A6890466B
:100530004146002996D1DEE70368C1469846F7E7B1
:100540000023FAE76C0600000000000008B5011C5B
:1005500000220020002300F019F808BD38B5094B2F
:10056000094DED1AAD1009D0013DAC00E41800E0D2
:10057000013D23689847043C002DF9D100F06EF846
:1005800038BDC0463C04002040040020F0B54F4672
:100590004646C0B498462B4BA4251B686D005C5999
:1005A00083B0061C0F1C91460193002C44D0656853
:1005B0001F2D1ADD244B002B02D1012040421CE0EC
:1005C000C820400000E000BF041EF6D000254560B2
:1005D000A42301985B00C05801992060CC50C4232B
:1005E0005B00E550C6235B00E550002E0AD16B1C72
:1005F0000235AD00636000202F5103B00CBC904663
:100600009946F0BDAB00E318882248469850C420B4
:100610004000221810680121A9400843106084227C
:10062000520040469850022EE1D1C6225200A31833
:10063000186801431960DAE71C1C4D34FF345C5123
:10064000B5E7C0466C06000000000000FEE7C046AB
:10065000F8B5C046F8BC08BC9E467047F8B5C04621
:10066000F8BC08BC9E46704743000000080000200C
:040670000000000086
:08067400ACFAFF7F0100000059
:10067C00000000000024F40000000000F402002040
:10068C005C030020C40300200000000000000000F8
:10069C00000000000000000000000000000000004E
:1006AC0000000000000000000000000068060000D0
:1006BC00000000000000000000000000000000002E
:1006CC00000000000000000000000000000000001E
:1006DC00000000000000000000000000000000000E
:1006EC0000000000000000000000000000000000FE
:1006FC0000000000000000000000000000000000EE
:10070C0000000000000000000000000000000000DD
:10071C0000000000000000000000000000000000CD
:10072C0001000000000000000E33CDAB34126DE66A
:10073C00ECDE05000B0000000000000000000000D3
:10074C00000000000000000000000000000000009D
:10075C00000000000000000000000000000000008D
:10076C00000000000000000000000000000000007D
:10077C00000000000000000000000000000000006D
:100AAC00080000201D040000E9000000C100000047
:040ABC000000000036
:04000003000002B146
:00000001FF
