:1000000000400020BD0300000504000007040000BC
:1000100000000000000000000000000000000000E0
:1000200000000000000000000000000009040000C3
:1000300000000000000000000B0400000D040000A0
:100040000F0400000F0400000F0400000F04000064
:100050000F040000000000000F0400000F04000067
:100060000F0400000F0400000F0400000F04000044
:100070000F0400000F0400000F0400000F04000034
:100080000F0400000F0400000F0400000F04000024
:100090000F0400000F0400000F0400000F04000014
:1000A0000F0400000F04000000000000000000002A
:1000B0000000000000000000000000000000000040
:1000C00010B5064C2378002B07D1054B002B02D02E
:1000D000044800E000BF0123237010BD4404002049
:1000E000000000008807000008B5084B002B03D073
:1000F0000748084900E000BF07480368002B03D009
:10010000064B002B00D0984708BDC04600000000F9
:100110008807000048040020400400200000000080
:10012000164B002B00D1144B9D46402292029A1A86
:10013000924600218B460F461348144A121A00F0CB
:100140009BF90F4B002B00D098470E4B002B00D093
:1001500098470020002104000D000D48002802D01F
:100160000C4800F07FFA00F063F92000290000F04D
:1001700043F800F04DF9C0460000080000400020A0
:100180000000000000000000440400206004002083
:10019000650600007506000080B582B000AF78608B
:1001A000A023DB057A68C132FF3292000321D150CF
:1001B000BD4602B080BDC04680B582B000AF786059
:1001C000A023DA057B6801219940A123DB00D150EF
:1001D000BD4602B080BDC04680B582B000AF786039
:1001E000A023DA057B6801219940024BD150BD461E
:1001F00002B080BD0C05000080B500AF1220FFF7F3
:10020000CBFF1320FFF7C8FF1220FFF7E5FF1320F5
:10021000FFF7D2FFFA235B00181C00F027F8132029
:10022000FFF7DAFF1220FFF7C7FFFA235B00181C65
:1002300000F01CF8E8E7C04680B582B000AF7860F7
:10024000C046C046C046C046C046C046C046C0467E
:10025000C046C046C046C046C046C0467B68013B5B
:100260007B60002BECD1BD4602B080BD80B582B072
:1002700000AF786006E07B68013B7B60044B181C94
:10028000FFF7DAFF7B68002BF5D1BD4602B080BDD9
:10029000E703000080B500AF024B034A1A60BD4679
:1002A00080BDC046040000200024F40080B500AFEB
:1002B00000F01EF8031C002B06D00A4B0A4A1A60F5
:1002C0000A4B802212021A6000F052F8031C002B25
:1002D00005D08023DA05C123DB000121D150BD46C2
:1002E00080BDC04604050040DFFF07C0186C004019
:1002F00080B500AF1A4B1A68FF231340012B2AD197
:10030000184B1A680F23134025D1174B1A68F02396
:10031000134006D1154B1A68F023134001D1012375
:100320001AE0114B1A68F0231340102B06D10F4B23
:100330001A68F023134001D101230DE00A4B1A681B
:10034000F0231340302B06D1084B1A68F0231340DA
:1003500001D1012300E00023181CBD4680BDC0462A
:10036000E00F00F0E40F00F0E80F00F0EC0F00F0F9
:1003700080B500AF0D4B1A68FF231340012B11D13C
:100380000B4B1A680F2313400CD10A4B1A68F02349
:100390001340402B06D1084B1A68F023134001D1BB
:1003A000012300E00023181CBD4680BDE00F00F0D3
:1003B000E40F00F0E80F00F0EC0F00F003210A4812
:1003C00002680A430260094802680A430260084959
:1003D000084A094B9B1A03DD043BC858D050FBDC8C
:1003E0000648804706480047240500405405004061
:1003F000940700000000002044040020AD0200002B
:1004000021010000FEE7FEE7FEE7FEE7FEE7FEE76C
:1004100010B50021041C00F099F8044B1868C36B58
:10042000002B00D09847201C00F09CF984070000A6
:1004300070B50D4E0D4D0024AD1BAD1005D0A300C1
:10044000F35801349847A542F9D100F08DF9084ED0
:10045000084D0024AD1BAD1005D0A300F3580134A6
:100460009847A542F9D170BD34040020340400201F
:10047000340400203C040020F0B54F464646C0B48A
:1004800083B0830752D0541E002A4AD0CEB2031C38
:10049000032503E0621E002C43D0141C01335A1EB6
:1004A00016702B42F6D1032C33D9FF250D402A02BA
:1004B00015432A0415430F2C1AD9271C103F3F0956
:1004C000B9463F01B8461027FF18BC4646461A1CDD
:1004D0006644156055609560D5601032B242F8D11F
:1004E0004F4601373F010F22DB191440032C10D96E
:1004F000271F1E1DBF080196BE00B446019E1A1C90
:10050000664420C2B242FCD10137BF000322DB198E
:100510001440002C05D0C9B21C1919700133A34234
:10052000FBD103B00CBC90469946F0BD031C141CD3
:10053000B9E7C04608B5034B002B02D0024800F0D3
:1005400091F808BD0000000075060000F0B55F4698
:1005500056464D464446F0B4404B85B01B68029069
:1005600001934933FF3303930F1C0198A4214900E1
:1005700042589046002A4AD00398814641464E6828
:10058000741E41D44546A3008835ED18C620C42307
:1005900001365B004000B6009B4682464644C34499
:1005A000C24408E02B1C80331B68BB4205D0043DCD
:1005B000043E013C28D3002FF4D141464A683368F9
:1005C000013AA2422CD000223260002BEFD04046EC
:1005D0005946406801220968A240009011421DD08E
:1005E0005046006810421DD102982968984741463C
:1005F0004968009A9142B8D14A4612684245B4D13E
:10060000043D043E013CD6D2154A002A0DD105B066
:100610003CBC90469946A246AB46F0BD9847E6E7FB
:100620004C60D2E728689847E1E743465B6840465C
:10063000002B0DD10368002B0ED049460B6000E063
:1006400000BF4B461A6890464146002996D1DEE726
:100650000368C1469846F7E70023FAE784070000DD
:100660000000000008B5011C00220020002300F05B
:1006700019F808BD38B5094B094DED1AAD1009D070
:10068000013DAC00E41800E0013D23689847043CBC
:10069000002DF9D100F06EF838BDC0463C040020B2
:1006A00040040020F0B54F464646C0B498462B4B58
:1006B000A4251B686D005C5983B0061C0F1C914675
:1006C0000193002C44D065681F2D1ADD244B002BAC
:1006D00002D1012040421CE0C820400000E000BFE1
:1006E000041EF6D000254560A42301985B00C05885
:1006F00001992060CC50C4235B00E550C6235B0009
:10070000E550002E0AD16B1C0235AD00636000205D
:100710002F5103B00CBC90469946F0BDAB00E318D6
:10072000882248469850C4204000221810680121B1
:10073000A940084310608422520040469850022E7F
:10074000E1D1C6225200A318186801431960DAE704
:100750001C1C4D34FF345C51B5E7C04684070000D3
:1007600000000000FEE7C046F8B5C046F8BC08BC73
:100770009E467047F8B5C046F8BC08BC9E46704718
:0C07800043000000080000200000000002
:08078C0094F9FF7F0100000059
:10079400000000000024F40000000000F402002027
:1007A4005C030020C40300200000000000000000DF
:1007B4000000000000000000000000000000000035
:1007C400000000000000000000000000800700009E
:1007D4000000000000000000000000000000000015
:1007E4000000000000000000000000000000000005
:1007F40000000000000000000000000000000000F5
:1008040000000000000000000000000000000000E4
:1008140000000000000000000000000000000000D4
:1008240000000000000000000000000000000000C4
:1008340000000000000000000000000000000000B4
:1008440001000000000000000E33CDAB34126DE651
:10085400ECDE05000B0000000000000000000000BA
:100864000000000000000000000000000000000084
:100874000000000000000000000000000000000074
:100884000000000000000000000000000000000064
:100894000000000000000000000000000000000054
:100BC4000800002035050000E9000000C100000015
:040BD400000000001D
:04000003000003BD39
:00000001FF
