:020000021000EC
:10600000004000204DB2010095B2010097B201009E
:106010000000000000000000000000000000000080
:1060200000000000000000000000000099B2010024
:1060300000000000000000009BB201009DB20100C2
:106040009FB201009FB201009FB201009FB2010008
:106050009FB201000000000081AB01009FB201006F
:106060009FB201009FB201009FB201009FB20100E8
:106070009FB201009FB201009FB201009FB20100D8
:106080009FB20100758201009FB201009FB2010022
:10609000458301009FB201004D7701009FB20100CE
:1060A0009FB201009FB2010000000000000000004C
:1060B00000000000000000000000000000000000E0
:1060C00010B5064C2378002B07D1054B002B02D0CE
:1060D000044800E000BF0123237010BD4C240020C1
:1060E0000000000004BA010008B5084B002B03D0E3
:1060F0000748084900E000BF07480368002B03D0A9
:10610000064B002B00D0984708BDC0460000000099
:1061100004BA0100502400204824002000000000A0
:10612000164B002B00D1144B9D46402292029A1A26
:10613000924600218B460F461348144A121A05F066
:10614000EDF90F4B002B00D098470E4B002B00D0E1
:1061500098470020002104000D000D48002802D0BF
:106160000C4805F013FB05F0FBF82000290000F0B7
:10617000D1F905F0E5F8C046000008000040002015
:1061800000000000000000004C240020342E0020FD
:106190008DB701009DB7010073DF704776DF704750
:1061A00078DF70477ADF70477CDF704760DF7047C9
:1061B0002EDF704734DF704740DF7047044808B572
:1061C0000178012359400170043001F0D3F908BD72
:1061D00068240020084B10B51B78002B0BD0074C0F
:1061E000201C211C5C31543001F0F2F9043481B2DE
:1061F000201C01F08FF910BD04200020682400202D
:1062000000B583B0002369460B70204B5A68D20555
:10621000D20D18D16846FFF7CBFF022811D0002815
:106220000BD1A023E522DB050321D2009950802168
:10623000A122C900D2009950FEE7A521144AFFF718
:10624000DFFF72B6EDE7103AD3B259B200290DDB89
:106250008908C0310F4B8900CB5803210A40D20076
:10626000D3401B069B0F012BDBD0D3E70F221A4034
:10627000083A0949920892005218032152680B40CB
:10628000DB00DA4013069B0FEDE7C04600ED00E0AF
:10629000B4B8010000E100E018ED00E038B5144C9E
:1062A000201C211C74316C3001F092F9114D043422
:1062B0006B6881B20133201C6B6001F0A3F80823E6
:1062C000021C9A4305D00C4B984202D00B4B9842CB
:1062D00008D16868032105F027F84B1E9941084B47
:1062E000197038BD0621FF31064AFFF789FFC04605
:1062F00068240020E824002004300000013400005D
:1063000004200020B4B8010010B50D4C201C211C45
:106310001031083001F05CF92034C1B2201C00F0CB
:10632000DDFE0823021C9A4305D0064B984202D09A
:10633000054B984200D110BDD821044AFFF760FFF9
:10634000E82400200430000001340000B4B801004B
:1063500008B5002A01D1002008BD101C0149024ADD
:10636000FFF74EFF3F030000B4B80100A32108B5BA
:106370008900014AFFF744FFB4B8010008B503786B
:10638000002B00D008BD054B3B215888FFF706FFC6
:106390000028F7D00249034AFFF732FF042000200B
:1063A00081020000B4B8010030B5041C83B0023C87
:1063B00002F0D4FD012C04D8144C3825635D002B69
:1063C00001D103B030BD00236846635503F008F9DE
:1063D000002813D1009B002B02D001236355F0E766
:1063E000201C3C30FFF7D8FE00280BD18021A123D0
:1063F000A0224900DB00D205D150E2E70449054A5A
:10640000FFF7FEFE0449034AFFF7FAFEE8240020E6
:1064100061020000B4B801006A02000030B583B028
:10642000041C03F09FFF2E48211C043000F098FE4E
:106430002C4D211C281C203000F08CFD201C01F06C
:106440005FFE2388112B25D0192B12D0102B01D0E1
:1064500003B030BDA0238021A122DB058900D2003A
:106460009950214A802149009950A2881F4B5A8097
:10647000EEE7A379002BEBD180211B4BA022490032
:10648000D205D150FFF796FE0028E1D01849194AED
:10649000FFF7B6FEA0248022134BE4059200E250E1
:1064A000684603F09DF8002812D1009B002B03D012
:1064B00001223823EA54CBE7281C3C30FFF76CFE5E
:1064C000002809D18022A1235200DB00E250BFE75F
:1064D0000949084AFFF794FE0849064AFFF790FE6B
:1064E00068240020E82400200C050000042000207F
:1064F000C6020000B4B80100610200006A02000098
:1065000008B5031C0A1C0248191CFFF779FEC04697
:10651000EFBEADDEF0B5A023E421DB0503224D463E
:10652000C9005F4656464446F0B45A50E8499FB009
:106530005A50E84900205A50C022E0219202C90076
:106540005A50E5495A50E54900220B1C89460092F1
:1065500050330621052202F041F9002800D0EFE176
:10656000DF4A0121101C92460830DE4A02F0B2F9DF
:10657000002800D055E250460C300121DA4A02F0E2
:10658000A9F9002800D047E2504610300121D74A2F
:1065900002F0A0F9002800D039E250461430012161
:1065A000D34A02F097F9002800D02BE25146183167
:1065B00008205022002301F08DF8002800D01DE2B1
:1065C0000EAC2070201CFFF7F1FD002800D011E276
:1065D000C84801F0A7F8002800D006E2C64801F03C
:1065E000ABF8002800D0FBE102F072FD002800D0DB
:1065F000F2E1A223A022D205DB00D35808AD5B084C
:10660000012201219A43281C8B462A7003F0A4FA28
:10661000002800D0DBE16B463E3398801E23C2B2D7
:10662000E3805B461A43E3231A400C23134323728F
:106630000723637210230121A3725046AF4B2171CF
:106640006830211C0E9303F01BFB002800D0BAE138
:106650002B780F265A46B3431343102133400B4384
:10666000281CA7490A222B70FFF79EFD002800D0A6
:10667000A4E1A448FFF794FD002800D099E1C823C5
:10668000C82260605B009200201C23806280E3804F
:10669000FFF788FD8046002800D085E1062303AF80
:1066A00099490C22281C3B7004F0A4FE42460223A8
:1066B00022600121237001236260A370A180032363
:1066C000201C0021A261E26022616261226262629A
:1066D000A262E26222636263A7602383E56101F044
:1066E000B9F8002800D05AE14B46D86318645864C2
:1066F0009864494628224C23CA52B4224E23CA52D7
:106700006B460322DA720B330390BB60C3B25A4666
:10671000B3430121134378603340397110210B4397
:10672000F8603B73030EB3431343784A3861334038
:10673000101C0B430430391CFB73904600F03AFDEB
:10674000002800D026E1020AD2B25946B2430A43D9
:10675000030C102132400A43DBB2E860B3436A7392
:106760005A46134333400B43AB73C3B2B343134393
:1067700033400B43686028612860A86048462B744A
:10678000642701232030291C2B712F7300F00EFC8D
:10679000002800D0FAE040220021201C04F0BEFEB8
:1067A000201C5B4900F0FEFE3C23E25C5946B243EC
:1067B0000A43164010221643E65400223D23201CB3
:1067C000E25400F051F9051E00D0DBE049465123A8
:1067D00048460B610122012308308A610B774F6123
:1067E000011C083100F0E8FE41468C234B679623DC
:1067F0005B008B6746460A23CB67002280236C36FA
:10680000CA54311C0831301C00F0D6FE4346DF6507
:10681000FA2341465B0001220B664A666823002288
:10682000CA544046311C5430103900F0C5FEA02334
:106830009B026360F0231B03A36041460323E560D2
:1068400023730B8A201CE381324B25606361324B3A
:106850002561A36101F01AFC002800D08EE05246A9
:10686000802190684902002202F066F8002800D0DA
:1068700080E053468021D8680902002202F05CF8CB
:10688000002873D1514608690022244902F054F8C7
:10689000002866D15246A02150698902002202F0E8
:1068A0004BF8002859D1201C02F09AFE002850D144
:1068B0000E9B002B36D0012238234946CA54FFF7DD
:1068C0007BFC0028FBD0DB218900154AFFF798FCF0
:1068D000240700003C07000004070000E824002013
:1068E000E8270020096301009D620100D5610100D5
:1068F000BD6101001D640100A96301005163010035
:10690000C0B8010041030000A8B8010068240020BD
:10691000CCB801007D6301006D63010066260000B4
:10692000B4B8010048463C30FFF736FC00280CD1D3
:106930008021A123A0224900DB00D205D150BEE76F
:10694000A6214900394AFFF75BFC3949374AFFF76E
:1069500057FC3849354AFFF753FC3749334AFFF7AC
:106960004FFC94218900314AFFF74AFC33492F4AF2
:10697000FFF746FC32492D4AFFF742FC31492B4ACA
:10698000FFF73EFC3049294AFFF73AFC2F49274AD6
:10699000FFF736FCF621FF31244AFFF731FCA42132
:1069A000FF31224AFFF72CFCC12149001F4AFFF7A3
:1069B00027FCBC2149001D4AFFF722FC7621FF314C
:1069C0001A4AFFF71DFC2249184AFFF719FCD52186
:1069D0008900164AFFF714FC1E49144AFFF710FC01
:1069E000C9218900114AFFF70BFCC82189000F4A11
:1069F000FFF706FC18490D4AFFF702FC17490B4A3E
:106A0000FFF7FEFB6221FF31084AFFF7F9FBAE21D9
:106A10004900064AFFF7F4FB5821FF31034AFFF70C
:106A2000EFFBA9214900014AFFF7EAFBB4B80100D6
:106A30006A02000061020000530200004D020000E3
:106A40004A020000A3020000120200000702000038
:106A5000630300004E0300001B030000130300004B
:106A6000A0DF7047A2DF7047F0B5454657464E4657
:106A7000E0B492B002A90123C64D8B70C64B041C32
:106A80002A1C01200B80FFF7EBFF002800D0E6E076
:106A90002688002E00D0E8E02689002E00D016E1DE
:106AA000268A002E00D043E1268B002E00D083E101
:106AB000268C002E00D0B0E1268D002E00D0DCE127
:106AC000226B002A50D011686846FF2756683F02A3
:106AD0000174081C3840B446000A6E467074FF20EA
:106AE0000004824612260840090E000C6E448846B7
:106AF000307069464046C874664605A90E709268B3
:106B0000694617404A753F0A694650468F750240EC
:106B100003AF0120B8703C26A048A65D6946120C60
:106B2000388001A80023CA7506700BA902223D26F1
:106B30000B9382700A70A65D06AA9360D3604B60C7
:106B40008B60CB600B614B618B610823467050609A
:106B5000138104A893812B1C106134332888069775
:106B6000FFF780FF00287AD1636B002B36D01968BD
:106B70001E798846002900D1BBE1002E04D10020F7
:106B80006E21874AFFF73CFB00230BA902200B93E1
:106B900004AF814608700120B8703C228148A25C95
:106BA000388003A802703D22A25C4B6042704A46C6
:106BB000827006AA9360D3608B60CB600B614B61DF
:106BC0008B61434613612B1C50603C332888069729
:106BD00016819681FFF746FF002840D1A36B002065
:106BE000002B3CD01A7804AE32705A8869464A7439
:106BF000120A69468A749A886946CA7405A9120AF3
:106C00000A70DB886A4653751B0A6A460BA9022084
:106C1000937500230B9303AF804608700120B87072
:106C20003C226148A25C388001A802703D22A45C2D
:106C30004246827006AA9360D3604B608B60CB6043
:106C40000B614B618B610723138193812B1C447073
:106C500050604433288806971661FFF703FF12B08F
:106C60001CBC90469946A246F0BD6068804600284C
:106C700000D132E100230BA9022204AF01200B93C3
:106C800091460A70B8703C224848A25C388003A83C
:106C900002703D22A25C4B6042704A46827006AA96
:106CA0009360D3608B60CB600B614B618B6143461B
:106CB0005060136128882B1D069716819681FFF777
:106CC000D1FE0028CBD12689002E00D1E8E6E0686D
:106CD0008046002800D106E100230BA9022204AF60
:106CE00001200B9391460A70B8703C223048A25C98
:106CF000388003A802703D22A25C4B6042704A4675
:106D0000827006AA9360D3608B60CB600B614B618D
:106D10008B61434613612B1C50600C332888069707
:106D200016819681FFF79EFE002800D1B8E696E70F
:106D300060698046002800D1E1E000230BA902220F
:106D400004AF01200B9391460A70B8703C22194899
:106D5000A25C388003A802703D22A25C4B604270A6
:106D60004A46827006AA9360D3608B60CB600B6149
:106D70004B618B61434613612B1C50601433288890
:106D8000069716819681FFF76DFE002800D18BE6ED
:106D900065E7C046542800200A180000232A000096
:106DA000E0B801002A2A0000502A0000292A000029
:106DB000242A0000252A0000E0698046002800D12E
:106DC000A3E000230BA9022204AF01200B939146FC
:106DD0000A70B8703C225648A25C388003A8027042
:106DE0003D22A25C4B6042704A46827006AA9360C4
:106DF000D3608B60CB600B614B618B614346136149
:106E00002B1C50601C332888069716819681FFF74B
:106E100029FE002800D14BE621E7606A8046002861
:106E200079D000230BA9022204AF01200B939146D5
:106E30000A70B8703C223F48A25C388003A80270F8
:106E40003D22A25C4B6042704A46827006AA936063
:106E5000D3608B60CB600B614B618B6143461361E8
:106E60002B1C506024332888069716819681FFF7E3
:106E7000F9FD002800D11FE6F1E6E06A804600280F
:106E80004FD000230BA9022204AF01200B9391469F
:106E90000A70B8703C222848A25C388003A80270AF
:106EA0003D22A25C4B6042704A46827006AA936003
:106EB000D3608B60CB600B614B618B614346136188
:106EC0002B1C50602C332888069716819681FFF77B
:106ED000C9FD002800D1F3E5C1E600206D21174A65
:106EE000FFF78EF9C6E600206D21144AFFF788F9F6
:106EF000F2E600206D21114AFFF782F93DE60020FD
:106F00006D210E4AFFF77CF917E700206D210B4A2F
:106F1000FFF776F955E700206D21084AFFF770F971
:106F20007FE700206D21054AFFF76AF9A9E7C0460F
:106F3000272A0000262A0000282A0000E0B80100C5
:106F4000A0DF7047A2DF7047A3DF7047A4DF704760
:106F5000A6DF704710B50B8882B0112B22D0502BC2
:106F600006D0102B01D002B010BD8B884382FAE707
:106F7000037D002BF7D0CA8843899A42F3D1CB8B8B
:106F8000022BF0D10368002BEDD021228A5C202453
:106F9000095D12020A4301210A404A4069460A700B
:106FA0009847E0E701235B424382DCE7F0B55746B0
:106FB00080B4041C012308685B422060638292B0A5
:106FC0000A790E1C237405A901238B70404B22758E
:106FD0000120221D0B80FFF7B3FF071E04D0381CD1
:106FE00012B004BC9246F0BD237D002B53D10BA9F7
:106FF00002220B934B608B60CB600B614B618B610A
:1070000013430B7000234B616A4601239374314A8A
:107010006D462A82B27B00202A73F27B6A730222B9
:10702000AA73357B08900990924604A86A46D570E9
:10703000069006AD033203A807902B81AB810A921C
:10704000A088A31D2A1CFFF77DFF071EC7D1B168CA
:1070500000291ED06A46012393741F4B9781138227
:10706000337C01AE1373301C5346937300F094FAD3
:1070700004AA2A60221CAF60EF6003AB2881A881BC
:107080000E32E088291C6B602E61FFF75DFF071C44
:10709000A5E7E081A3E70F22C1B29143012529436F
:1070A0001140102202AB11431970717B02255970F7
:1070B000022199700BA90B9048608860C860086134
:1070C00048618861C0B2284302430A709BE7C0460A
:1070D0000F180000192A00000829000030B589B0F7
:1070E0006B46D971037C041C00208B4214D06B4684
:1070F00001251D812174E088002102AA0733FFF7D2
:1071000025FF002808D1628A104B9A421AD0217DAF
:107110000823002902D1181C09B030BD6B461D811F
:10712000E38804A904900B8001238B7002AB8B6071
:1071300007236B444860101CCB60FFF709FF031C5A
:10714000181CE9E70823181CE6E7C046FFFF00000B
:10715000A0DF7047A2DF7047A4DF7047A6DF70474B
:1071600010B50B8882B0112B1FD0502B06D0102BDE
:1071700001D002B010BD8B880384FAE7CA888389E6
:107180009A42F6D1CB8B022BF3D10368002BF0D0BF
:1071900021228A5C2024095D12020A4301210A404F
:1071A0004A4069460A709847E3E701235B4203843B
:1071B000DFE7C046F0B50B7946464F46041CC0B425
:1071C0000868637101235B4223842222002320602C
:1071D000A3544C22A35297B0874B0E1C012502A941
:1071E000A21D01200B808D70FFF7B2FF031C002B46
:1071F00004D017B00CBC90469946F0BD0F22D9B20E
:10720000914301200143114010226846114301704F
:10721000317B1A434170022181700FA90F931093A3
:1072200011931293139315930A7000AA1492734A40
:10723000717B828101AA1170B17B857304ADAB6053
:10724000EB602B61517063790321917003A9049164
:107250006A60002B00D0ABE0022299462223E35C57
:10726000002B00D091466B46293300221A704C2324
:10727000E35A002B00D19FE0494610220A43D2B2C4
:1072800091466946A28C2A310A70120A4A7001217D
:107290000422012B00DC94E0E28C0BA90A70120A94
:1072A0004A700131022B00DC8DE0228D4A70120AF7
:1072B0008A70032B00DC8AE0628D0CA90A70120A26
:1072C0004A700131042B00DC85E0A28D4A70120A5D
:1072D0008A70052B00DC82E0E28D0DA90A70120A8B
:1072E0004A700131062B6ADD228E4A70120A8A70BA
:1072F000072B78DD628E0EA90A70120A4A700131DE
:10730000082B74DDA28E4A70120A8A700921142299
:10731000092B56DD093B201C211C5A003631243034
:1073200004F0AAF84C23E35A092114225B1A4C20DA
:1073300023520AAF4B463B701423AB81231C2A8196
:10734000E0880FA92A1C08332F61FFF703FF0028EC
:1073500000D04EE7B1688846002900D149E70223F2
:1073600099464A4602430FA90F901090119012902F
:107370001390149015900A70214A69462A80F27B76
:10738000367C01230A734A46B860F860AB7003A8E4
:107390004E738A733B814146BB81231C78603961FF
:1073A000E08810330FA93A1C3D60FFF7D3FE20E7B9
:1073B00004200622814651E700210222B6E7062179
:1073C0000E2289B2B2E70221062289B2AEE703217A
:1073D000082289B2AAE704210A2289B2A6E7052178
:1073E0000C2289B2A2E70721102289B29EE7082168
:1073F000122289B29AE7C0460D180000372A000011
:10740000382A0000F0B54F464646C0B4028C404BC7
:10741000071C8DB0944608209A4204D10DB00CBCD4
:1074200090469946F0BD7B79002B54D102229846B4
:107430002223FB5C002B00D09046FF2952D9424604
:1074400001231343DBB29846CAB26B46090A997608
:107450000324032503216B465A764C23F85A00284F
:107460003DD0424610231343DBB298462423DB1958
:1074700099461A1C0024023106AE04E00D1C0231AC
:107480000232142933D8138875192B7001341B0A62
:107490006B70C9B28442F1D183B20C1CC01A4C2269
:1074A000434602A9B8523370002302934B603B89D4
:1074B0006A460B8001238B70604600AB14808B60A2
:1074C000CE60FFF74BFE0028A8D16A461388A3427E
:1074D000A4D00C20A2E7042306229846A8E70023A4
:1074E00006AEDBE7CAB2022402250221B3E7211C63
:1074F00010314900001B791842000431484603F05E
:10750000BBFF3A8C4C23F85A9446A3B22C1CC5E717
:10751000FFFF000070B54C25435B041C0E1C142BB0
:1075200007D0591C10334C225B00A152E418A680EE
:1075300070BD211C24302631262203F09DFF635BA1
:10754000013B9BB2EDE7C0464C23C05A143843427E
:107550005841C0B27047C04610B5054A048C031CA0
:107560000820944200D010BD59710020FBE7C046AE
:10757000FFFF00002223C1547047C04600B585B00C
:107580006B460733197002AA01211180008A00217D
:10759000FFF7E2FD05B000BD0B7803704B78437038
:1075A0000220704738B5041C081C0D1C04F014F8A8
:1075B0006560208038BDC0460B7B002B04D10B6872
:1075C00001220271036070474B680022F9E7C04650
:1075D000027910B5031C002A08D048681A68896827
:1075E000841A8C420CD98818186008E004688A68EC
:1075F0000868211A914207D8012218601A7110BD3B
:10760000002218601A71FAE7A01A1860F7E7C0465E
:1076100026DF704751DF704710DF704711DF70477A
:1076200061DF704708B5081C111CFEF769FF08BD33
:10763000F0B546464F46C0B4244E83B03378002B95
:107640000ED0726855425541B268EDB2574257416B
:107650001F4BFFB298469946002D09D0002F18D035
:1076600003B00CBC90469946F0BD002DF8D101271F
:1076700068466C46FFF7CEFF052824D000281AD0B4
:1076800069214A46FEF7BCFD002F03D0002DE7D14B
:10769000EEE76C463769B389381C69462380FFF7EB
:1076A000BFFF0528E1D0002809D080214246FEF71F
:1076B000A7FD0027D0E7009872689047E4E7381CE0
:1076C000B3689847F5E70125DEE7C046A02800200B
:1076D00014B9010038B5041C0720002901D08D071A
:1076E00000D038BD074D201C29610749AA816B6174
:1076F000FFF792FF0028F4D1012316202B70FFF72B
:1077000087FFEEE7A02800202576010008B5FFF7E7
:1077100085FF021C531E9A41014BD2B21A7008BD5C
:10772000A0280020002803D0024B9860002070475A
:107730000E20FCE7A0280020002803D0024B586050
:10774000002070470E20FCE7A028002008B5084B59
:107750005B69002B09D09847002800D108BD99210A
:107760004900044AFEF74CFDF8E7FFF761FFF5E733
:10777000A028002014B9010072DF704779DF70473C
:107780007DDF704765DF7047F0B55F4656464D4672
:107790004446F0B483B00C9F8A46994639780388F2
:1077A000051C161C8B46002B3CD000229046002462
:1077B00003E02B880134A3422ADD6B68A10059182D
:1077C000042201A803F016FE01A869460022FFF773
:1077D000D9FF002827D169460B78B342E9D1424648
:1077E000002A27D03A7893191F2B30DC4A4401A88D
:1077F0006946FFF7C7FF002815D169463A780B782C
:107800000134D3183B702B8801229046A342D4DC6C
:107810004346002B06D03B785946013B4A465B1A4B
:107820005A441370002003B03CBC90469946A246CF
:10783000AB46F0BD3B789A191D2A08DC9A1C01332F
:107840003A70DBB252464946CA543A78CEE70C2029
:10785000E9E7C046F0B54F464646C0B499B00023AC
:10786000041C68460D1C03720374002C00D1E0E078
:10787000A388002B05D1072019B00CBC904699466F
:10788000F0BDA368002BF6D01B785907F3D52378F9
:10789000002B00D0EEE0A278002A00D014E1A288EC
:1078A000002A00D02FE1E268002A10D012780C20C4
:1078B0001C2BE1DC08AE0221F154591CC9B20A208C
:1078C0007054D91C02336F46DBB23972F254238AEA
:1078D000002B00D0F3E1238B002B00D009E2238C96
:1078E000002B00D049E2A36A002B3AD06F463A7AC7
:1078F0000C20911D1F29BFD81E880720052EBBD93B
:10790000904FBF19BFB2BC468F4FB946BC45B3D9E3
:107910005F88BC46052FAFD98A4FB846E04447463A
:10792000BFB24F45A8D9894FBE4203D0BC4501D054
:107930006645A1D808AE0520B054501CC0B212272D
:107940003754901C1F88C0B2301807703F0A477028
:1079500004325B88D2B2B61833706F461B0A73705C
:107960003972E76A002F2AD068463979037A8E1C6B
:107970009A1CF6B296190C201F2E00DD7CE708AE8B
:107980000331F154591CC9B2FF2070543988D2B266
:10799000B2181170090A51700433BA88DBB2694613
:1079A00098460B72002A0AD0B968002900D162E714
:1079B000F01803F01FFDBB886A464344137234235A
:1079C000E35C08AE002B35D0276B002F00D152E7C7
:1079D000013BDBB25A00D3189B000C336846DB191D
:1079E0001621047A994688460AE0301903F002FD10
:1079F000BB886846E418E4B204720C374F4519D0CE
:107A0000BB88424603333355631CDBB2F254A31CDC
:107A10003A88DBB2F3181A700434120A5A70E4B2CE
:107A20006B461C72BA88002AE7D0B9680029DCD1FD
:107A300021E70026002D00D1F7E1AB88002B00D014
:107A400019E7684603742B78002B00D06BE1002403
:107A5000AB78002B00D0AAE1AA88002A00D0C5E1AB
:107A6000EB68002B00D180E01B781C2C70DD0C2310
:107A7000181C01E763780C201D2B00DDFCE610AF1D
:107A800068461D232230391C3B80FFF779FE002811
:107A900000D0F1E62378022B00D13DE26378002B81
:107AA00002D008221D2B01D93B880822DBB2591CC9
:107AB00008AE317069466F4621310A703A7A023257
:107AC0009B18DBB23B72E6E60C201B2B00DDD3E6F5
:107AD00010AF381CFFF752FE002800D0CCE66846F5
:107AE000037A08AE0322F2545A1CD2B21921B154BF
:107AF000991C3A88C9B2761804333270DBB2120A84
:107B000072700372CBE6A168002900D1B3E69F1C16
:107B1000BE180C201F2E00DDAEE6D0B208AE8046A7
:107B20000130F054FFB2684601330772DBB2012026
:107B3000F054F019474403F05DFCFBB269460B7248
:107B4000B1E6C0467FF3FFFF7DF30000FFFF0000BA
:107B500010AF02223A55621CD2B20A21B954E21C7B
:107B600002346946E4B20A743B552B8A002B00D0DC
:107B70008AE02B8B002B00D05BE12B8C002B00D0FC
:107B800072E1AA6A002A40D06F46397C0C23881D16
:107B90001F2800D96CE714880723052C00D867E755
:107BA000C04F3F19BFB2BC46BF4FB946BC4500D815
:107BB0005EE75788BC46052F00D859E7B94FB8464D
:107BC000E0444746BFB24F4500D851E7B74FBC42EB
:107BD00004D0BC4502D0644500D949E710AF052365
:107BE0007B544B1CDBB21224FC548B1C1488DBB27C
:107BF000FB181C70240A5C7004315388C9B27F18CA
:107C00003B7069461B0A7B700874EC6A002C2BD011
:107C1000694620790A7C871C911CFFB2CF190C237E
:107C20001F2F00DD24E710AF0330531CB854DBB224
:107C3000FF20F8542388C9B279180B7004321B0A4C
:107C4000D2B24B706B4690461A74A288002A0BD0B1
:107C5000A168002900D122E14346F81803F0CAFBCD
:107C6000A3886F4643443B743423EB5C002B00D065
:107C70001EE16A46147C10AF3A1C6B46197A301C20
:107C8000231CFFF779FDF7E52C1C04AA103410AF74
:107C900000923B1C201C02210222FFF775FD031EEF
:107CA00000D0E5E604AB0093201C3B1C062110220B
:107CB000FFF76AFD031E00D15BE7181CDCE5271CFB
:107CC00002A8103708AE00900221381C0222331C93
:107CD000FFF75AFD002800D0CEE502A90091381C1C
:107CE00006211022331CFFF74FFD002800D1F2E5DA
:107CF000C2E5271C02AA183708AE0092381C0321DF
:107D00000222331CFFF740FD002800D0B4E502AB8F
:107D10000093381C07211022331CFFF735FD002883
:107D200000D1DCE5A8E56A780C231D2A00DD9FE67A
:107D300006AC68461D234230211C2380FFF720FD3E
:107D4000031E00D094E62B78022B00D1EAE06B787A
:107D5000002B02D008221D2B01D923880822DBB278
:107D6000591C10AF3970694641310A7069460C7C64
:107D700002341B19DCB20C746AE6271C02A82037F7
:107D800008AE00901421381C0222331CFFF7FCFCC3
:107D9000002800D070E502A90091381C152110229E
:107DA000331CFFF7F1FC002800D19CE564E50C23AF
:107DB0001B2C00DD5CE606A8FFF7E0FC031E00D0EC
:107DC00056E66A46147C10AF03233B55631CDBB2B6
:107DD0001922FA546846A21C038BD2B2BF1804348D
:107DE0003B70E4B21B0A7B70047435E6A968002975
:107DF00055D0A01C87180C231F2F00DD38E6D3B206
:107E000010AF984601333B55C0B26B46013418742D
:107E10008146E4B201233B554C463818444403F0F4
:107E2000E9FAE4B2684604741AE669460C7C00225A
:107E300023E72C1C04A8183410AF00903B1C201C16
:107E400003210222FFF7A0FC031E00D010E604A9C4
:107E500000913B1C201C07211022FFF795FC031EFC
:107E600000D18AE6181C07E52C1C04AA203410AFA8
:107E700000923B1C201C14210222FFF785FC031EEC
:107E800000D0F5E504AB0093201C3B1C152110220B
:107E9000FFF77AFC031E00D173E6181CECE40723FD
:107EA000181CE9E47FF3FFFF7DF30000FFFF0000F3
:107EB0002D6B002DF3D0013BDBB25A00D3189B0091
:107EC00068460C335B191621047C994610AF88462E
:107ED000AB88424603333B55631CDBB2FA54A31C08
:107EE0002A88DBB2FB181A700434120A5A70E4B202
:107EF0006B461C74AA88002A0AD0A9680029CED033
:107F0000381903F077FAAB886846E418E4B20474D1
:107F10000C354D45DCD1AFE63B8809221D2B00D83E
:107F2000C4E5BBE5238809221D2B00D817E70EE71F
:107F300070B5094C051C0E1C201C111C7F2203F07F
:107F400053FB00227F23E254044BB6B21E805D60D7
:107F50001A885B6872B6FEE7B8280020382900202E
:107F600010B50E4C01236060201C628008307F2217
:107F7000238003F039FB00228723E254084B694633
:107F80001A68201C80238830521A5B009A4200D95C
:107F90001A1C03F02FFA002010BDC0464029002013
:107FA0000060010075DF704776DF70477ADF704749
:107FB0007BDF704710B5184C184B208882B0984270
:107FC00013D0A378227C0133DBB2A3709A420ED285
:107FD0000023A370237D002B14D1A369002B04D0B0
:107FE000002269460A706846984702B010BD211CFD
:107FF0002031FFF7D7FF0028F7D0E369002BF4D03A
:108000009847F2E73B21FFF7CFFF0028E5D0E3696F
:10801000002BE2D09847E0E7C82A0020FFFF0000CD
:1080200010B5194C82B0638D228C9A420FD8628CA5
:108030009A420CD3A369002B04D0012269460A702E
:108040006846984700223423E25402B010BD34231E
:10805000E35C002B08D0A369002BF3D00022694613
:108060000A7068469847EDE7A378002B0AD0E168CC
:10807000206B002200F060FC0028E3D0E369002BB5
:10808000DFD1DFE7A168F3E7C82A002070B5164CFE
:10809000021C231D62CA62C362CA62C312681A60EC
:1080A000016800223423E254002916D0251C203513
:1080B000281C082203F09EF9281CFFF777FF0028F0
:1080C0000AD101235B42201C238030300023002191
:1080D000064AA37000F0FEFB70BD201C2030FFF7A5
:1080E00067FF0028EDD0F7E7C82A0020B57F010020
:1080F00008B5024B186B00F0A7FC08BDC82A002089
:1081000010B50388112B36D022D9122B17D0502B43
:108110001DD11F4CC288638A9A4218D1C38B022B8F
:1081200015D12023C35CDA070FD4206B00F08CFC40
:1081300000280CD0E369002B09D0984707E0811D87
:1081400013480822283003F055F9FFF769FF10BDE6
:10815000102BFCD10E4C8388011C2380231C283358
:10816000181C0E31082203F045F90023A370638A1E
:10817000002BECD1E9E7064C01235B422380206B06
:108180000023A37000F060FC0028D3D1DFE7C046D5
:10819000C82A002070B5154C011C251C203582B062
:1081A000281C082203F026F9281CFFF7FFFE051EF5
:1081B0000ED1638D228C9A420DD8628C9A420AD3DA
:1081C000A269002A04D0012369460B7068469047D3
:1081D000281C02B070BD211C0126342320882031C8
:1081E000E654FFF7DFFEA670051CF1E7C82A002061
:1081F0001D4A802189028023D1501C4B8022D2212C
:10820000520289005A50C22189005A5001225A60F4
:108210002F23C046C046C046C046C046C046C046E2
:10822000C046C046C046C046C046C046C046013BE8
:10823000002BEED10D4A012191600D4A13602F23CE
:10824000C046C046C046C046C046C046C046C046FE
:10825000C046C046C046C046C046C046013B002B93
:10826000EED113717047C04600E100E000100140FC
:10827000002B0020F0B52E4BA021002249004746DC
:1082800080B45A50A22149005A50A42149005A50A2
:10829000A62149005A50802149005A5082214900A4
:1082A000244E5A50B468621C33D0234A00279D588C
:1082B0003368224AED1A2D022D0A904601E0631C14
:1082C0001AD0E3001B19F2689B00D3185968A94221
:1082D00012D86D1A7F181C6A9A69D9693369002B04
:1082E0001AD0101C98470028E9D06421FF3142467B
:1082F000FDF786FF631CE4D1327D737D9A420ED078
:108300009B00F618802180230D4A49035B00B7616A
:10831000D15004BC9046F0BD081C9047CFE7531CD9
:10832000DBB2022B01D07375EAE700237375E7E730
:1083300000100140002B0020040500004CB9010092
:1083400000E100E0F0B54D4644465F465646F0B4C5
:10835000B64DB64C2B7D24686A7D8BB005949A424D
:1083600000D1C6E10133DBB2022B00D1F7E0AF4F01
:108370002B759B00FB189B69059C04931B191B0222
:1083800001251B0A07953B603C1C3D1C2023EB5C30
:10839000A468013BDEB2089409930694231C03965B
:1083A0000025341CFF2C36D0A048E600406A861910
:1083B000347871788C4227D0600000197268C00050
:1083C00010180134B278E4B2121B571EBA4152425F
:1083D00014400278022A00D1C9E0032A00D0C3E089
:1083E0005F1C00D1C0E0914FF968DA00D3189B0000
:1083F000CB181D751B6A581CF7D18C4F7178BB6068
:108400009A4653468C42D7D1039A013AD2B203928C
:10841000141CFF2CC8D1079D0693002D00D06FE1DE
:10842000089E824FF31A5A1E9341DBB20793012331
:108430005B427E4E9C46099BB8683968766A00228A
:10844000DBB2FD68059602908B46069F9146049329
:10845000FF2B00D1F5E0059EDB00F6186446B2461E
:10846000013441D06046C4006444A4002C19226A3F
:10847000A3685846E0466E4E94461A1A1202E16806
:10848000120AB24262D85218626001264A4601239B
:108490007642A260E26023752662781C00D1BEE0BD
:1084A000F900C91989006918626848683E1C82424F
:1084B00009D8A6E0D900C91889006918486890420F
:1084C00000D3A9E01E1C0B6A121A581CF2D12362B9
:1084D000F3009E19B600AE19414662603B1C316242
:1084E0001F1C64460134BDD15646337872789A42D7
:1084F00000D19FE05A0056465446D21864680133B2
:10850000B178D200DBB2A2183370994200D18AE070
:1085100051683B1C884611780129E1D14346DC00B3
:108520004444A4002C19217D3B1C0029D8D1936818
:108530005846A360D168E1601669266152693C4ED5
:10854000E2611A1A1202120AB2429CD95846C31AA0
:108550001B021B0A8B425CD2C91A616095E7334E3D
:1085600000233375371C04E79A4653464AE72F4FDA
:108570004068FA689A469046C200944612189200E3
:108580009146C1444F463A7D002A00D139E7591C33
:1085900014D0984200D1A4E0191CA246031C404606
:1085A000884602E093420ED0111CCF007F18BF0016
:1085B000C7193A6A541CF5D15446C2464846057557
:1085C000717853461EE7424654468046181C131CD9
:1085D000814200D175E0604480008346C3449246E6
:1085E0005B465A681B6A3B625F1CE7D0D900CB1818
:1085F0009B0043440D4F5868B96882185A608A46F8
:10860000DCE7821A4A604246131C276202921F1C52
:1086100067E74946616038E7801A486057E7434694
:1086200002931F1C5DE74846307071E7002B002065
:10863000FEFF7F00049B013BDBB20493FF2B00D0C5
:1086400009E70298614C069DA060BD424DD0781CA0
:1086500000D1B8E05D49FB00C968DB199B00CB186D
:108660005A4D5C685A4A5B4B28689A582979161A01
:108670003602360A0336002900D17DE0331EA342BC
:1086800000D2231C1B1853491B02A8201B0AC00040
:108690000B504F489B1A09581B02891A0902090AF4
:1086A00003311B0A994205D9802180234A4A890255
:1086B0005B00D1500BB03CBC90469946A246AB46FD
:1086C000F0BDD200D3189B004344BB461B6A3F4811
:1086D000191C83609A46013100D081E7FFF788FDBD
:1086E0007EE7CB464B464F46F0E7079E002EE1D093
:1086F000ADE70026002704960797344C334D45E636
:10870000324F0122FE685242B86800240025171C2F
:10871000B4461BE0DA00D218920062445168049E0D
:10872000B1421ED8761A6418106A11690496556011
:1087300015758046002907D005981762261836025D
:10874000360A9660D1601F1C43464046591CE1D151
:108750001E4C0125BC46A06006930795261C271CCD
:1087600069E6BC46194F891BB86001203E1C516068
:1087700006930790154F5EE68021D1254902AD0092
:108780005951C125AD005951C02713498025AD026B
:108790007F00CD510D60012119602F21C046C046D8
:1087A000C046C046C046C046C046C046C046C04699
:1087B000C046C046C046C04601390029EED1034F2D
:1087C00001233B715AE7FFF713FD73E7002B0020ED
:1087D000040500000010014000E100E0F0B557463C
:1087E0004E464546E0B481468A4690461F1C072007
:1087F000990704D01CBC90469946A246F0BD002BB8
:10880000F8D0FFF7F5FC2E4A089B544613615046FA
:108810002823D454D760002850D05046C1000B18EC
:108820009B003C1C00250026243526702675243428
:108830009D42F9D1514489007F1820230321D1544E
:1088400043465900381C41441830C900786040182C
:10885000411879610121002349423B707B703B72D2
:108860007B723B747B74916013755375F860154B84
:108870008021C020444649034000BC70BC72BC74D7
:1088800057621950C52080001C58FF25AC43C025F5
:108890002C431C501960A1200B49C0004C460C50C1
:1088A000C42080001D58094C2C40C0252D022C43AB
:1088B0001C50074B0020CB5813609BE70021B9E701
:1088C000002B002000E100E000100140FF00FFFF4E
:1088D00004050000174BF0B5DC689446002C1CD052
:1088E000002A18D0002816D028229E5C002E10D016
:1088F0002378002B13D02434002307E0271C2434D2
:10890000251C243D2D781A1C002D0AD00133B342BA
:10891000F4DB0420F0BD0720FCE70820FAE7271C61
:10892000002201233B7063467970BB610260002026
:10893000F0E7C046002B0020F0B53D4B4746DC6811
:1089400080B4051C002C45D028201E5C0720AE42B8
:1089500002D804BC9046F0BD0429FAD9E8004019B9
:108960008000241826780820012EF2D16078012892
:1089700032D0002080462F4844681020E405E40DE2
:108980002ED15E6A36187378B0785C1C201A471EA8
:10899000B841404204403078A0421FD05800C3186C
:1089A0007068DB00C3180420002BD2D001205D606A
:1089B0001870214D21482858D960414698601961A6
:1089C0005A61802180231E4A49035B007470002095
:1089D000D150BEE70820BCE78846CCE70420B8E7C2
:1089E000103CE0B246B2002E13DBB608C036144885
:1089F000B600305803263440E400E0400406A40FDB
:108A0000E4B20020012CBCD00820032CB9D01020E7
:108A1000B7E70F240440083C0A4EA408A400A41998
:108A2000032664683040B040C440E4B2A409E7E7DC
:108A3000002B002000ED00E00010014004050000C4
:108A400000E100E018ED00E0324B30B5D9680029B4
:108A500034D028229C5C0722844201D8101C30BDEF
:108A6000C20012189200515C08220129F6D12A4A4C
:108A700051681022C905C90D24D1596A89184A784C
:108A80008C78531C1C1B651EAC41644223400C783F
:108A90009C4215D05400A4184A68E400141904221A
:108AA000002CDBD00222227060601C4A4B708021B7
:108AB000802349035B00D1500022CFE70822CDE795
:108AC0000422CBE71039CCB262B2002A13DB94083F
:108AD000C034124AA400A25803242140C900CA404D
:108AE0001106890FC9B200220129C6D00822032924
:108AF000C3D01022C1E70F222240083A0849920849
:108B0000920052185168032214409440E140C9B2C7
:108B10008909E7E7002B002000ED00E000E100E01C
:108B200018ED00E02C4B10B5D9680820002927D09B
:108B30002A4A51681022C905C90D24D15B6A9A18C6
:108B4000517890784B1C181A441EA04140420340B3
:108B50001078984215D0480041185068C900411853
:108B6000042000290CD003200870012040424860F6
:108B70005370802180231A4A49035B00D1500020A2
:108B800010BD0420FCE71039C8B242B2002A13DB42
:108B900092081348C0329200125803200140C900C5
:108BA000CA401106890FC9B200220129C6D0082285
:108BB0000329C3D01022C1E70F220240083A094915
:108BC000920892005218516803221040C000C14020
:108BD0000906890FE7E7C046002B002000ED00E002
:108BE00000E100E018ED00E0024A034BD3580360B7
:108BF000002070470010014004050000411A0902DE
:108C0000090A00201160704721DF704720DF70479C
:108C1000F8B5774C4F4625784646C0B4814688461D
:108C2000161C1F1C002D15D1131C3B4319D1022308
:108C300023704046FFF7EAFF002836D1002E00D00F
:108C4000D2E0002F00D0BCE049460B78042B00D0C6
:108C5000B2E04BE0062D00D9B1E0664BAD005B59A8
:108C60009F4601232370644B5A69013200D1ABE067
:108C7000586980235B0519690904090C02F010FB8F
:108C8000451E80235B05186919691A6900040904E7
:108C9000000C090C434692B2684359439208FFF70F
:108CA000B3FF002801D1022323700CBC90469946E3
:108CB000F8BD514B5A69013200D190E058698023C8
:108CC0005B0519690904090C02F0EAFA421E8023C7
:108CD0005B05186919690004000C09045043090C6C
:108CE00002F0DEFAFFF792FF0028DED1072323709F
:108CF000DBE780235B05186993000004000C484300
:108D00004A461169528818189208FFF77DFF00281B
:108D1000CBD13E43EAD006232370C6E780235B0510
:108D20001D69354A2D042D0C4D435169013153D035
:108D3000506919690904090C02F0B2FA013880235C
:108D40005B051969321C0904090C4143281CFFF713
:108D50005BFF0028A9D1002F33D149460B78042BA3
:108D60002AD1D8E780235B051A6941461204120C08
:108D70004A434588B6005219921990461E4A5169D5
:108D8000013126D0506919690904090C02F088FAEA
:108D9000013880235B05196976190904090C4143E0
:108DA0003A1C71184046FFF72FFF002800D07CE7DF
:108DB0004A461378042BAED00523237075E70320B1
:108DC00073E70423237070E780235B055D69013D31
:108DD00057E758690138DCE758690138AFE7802365
:108DE0005B055A69013A72E7032323705DE7C046C9
:108DF0002C2B00207CB9010000100010F8B53A4D72
:108E00002A792B1D91008A1892009B181C1D1B7932
:108E1000E668042B39D0052B15D00F20022B00D08B
:108E2000F8BD324A5023D35A20699B02C118A0884A
:108E300062888619D21AF0182D4B9A423CD89208B3
:108E4000FFF7E2FE1CE080277F053969301C09042A
:108E5000090C02F025FAA388011C9E193A693B69A6
:108E60001204120C1B04481C4A431B0C4343608829
:108E7000B21A86199B1B92089B08201CFFF7C8FE9C
:108E80000028CDD10123AB71CAE7A168174F0B01B0
:108E9000FB181A1C9B6D5C3210885288B34210D0AC
:108EA000022912D080277F053969301C0904090C7A
:108EB00002F0F6F9011CD1E780225200FFF7A4FE70
:108EC000DEE7504363889842EAD180235B05196945
:108ED000301C0904090C02F0E3F95023FB5AC018B6
:108EE000FFF794FECCE7C0462C2B0020AC2B0020D3
:108EF000FF030000F0B5474680B406AC24888446E2
:108F0000A046154C042065790A2D1BD02679AE1990
:108F1000F6B2092E01D90A3EF6B2B0008619B600A3
:108F2000A619B2616046321C30721032371D41C939
:108F300041C2FB8043463B81A3790020002B04D033
:108F40000135657104BC9046F0BDFFF757FF6579A8
:108F50001128F5D10020F3E72C2B0020F0B55A4C56
:108F600083B0A379002B1BD022780023A371082A99
:108F700018D0022838D0032812D123799800C018BD
:108F8000800023181D69181C2A01504D197AAD184C
:108F90001A1DD2889B69009210306D6D0D22A84772
:108FA00003B0F0BD022800D183E0484964228B540D
:108FB0006379002BF4D0FFF721FF021EF0D01128B7
:108FC000EED02379414E9900CB18990063181D69A2
:108FD00028011D1DEC883618197A181C9B6900940D
:108FE0001030756DA847DBE72379201D9F00F91825
:108FF00089004118081D354E84465020355A09799C
:109000000135ADB23552022955D0052947D0042982
:1090100047D1072A06D060464188AD028D4243DB26
:10902000002A41D1FB189B00E218106900250101BC
:109030002570891993698C46101C117A5289103059
:1090400000926246576D0022B847227901209300B2
:109050009B189B00E3181D725D8118615D619D6125
:109060009D815023F5526379511C013BDBB2C9B29B
:10907000637109291AD82171002B00D190E7FFF7FD
:10908000BDFE021E00D18BE7112800D188E72379AD
:109090009900CB18990063181D69280199E7072AE0
:1090A000C0D00022002ABDD16379E5E7093A2271D8
:1090B000E2E723707CE762465188AD02E817CA0FE9
:1090C0008D424241EEE7C0462C2B0020AC2B002005
:1090D00038B5574C0022302022544420002322541B
:1090E0004620235248202352524D582022545021CA
:1090F0005A206B52235201215C2022716271A271AD
:10910000227263816361A361A3812277E383A362F7
:10911000E36223846386E3632364A3862365636534
:1091200021616162A163E164216623526C202254B3
:109130006E202352702023528020225482202352FA
:10914000882021508C2023509020235084202352AB
:1091500094202254962023529C202150A02023505A
:10916000A420235098202352A8202254AA2023521E
:10917000B0202150B4202350B8202350AC202352DB
:10918000BC202254BE22A352C422A150C822A35004
:10919000CC22A350C022A35266226366A366A367B3
:1091A000E3676167AB52244B5A69013238D0586982
:1091B00080235B0519690904090C02F071F8831E0C
:1091C0008022520510695C210004000C58430023E2
:1091D0006B5260216B525E216B526B6508232370CA
:1091E000154BA866596901311FD0586911690904E6
:1091F000090C02F055F8421E80235B0518691969B5
:109200000004000C09045043090C02F049F8FFF770
:10921000FDFC002803D101236422A371AB5438BDA7
:1092200080235B055B69023BCAE75269013AE3E7C9
:109230002C2B0020AC2B002000100010F0B556465F
:109240004D4644465F46F0B4464D6423EB5C83B024
:109250000E1C0824002B07D1201C03B03CBC9046F8
:109260009946A246AB46F0BD00286DD000296BD0D0
:109270000768002F68D080235B051A69818892B245
:10928000884607249142E7D80F29E5D9C08881464E
:109290000028E1D04143AA6E8A46009252440192CE
:1092A000314A8B465169013150D05069196909041E
:1092B000090C01F0F5FF013880235B051A6901995B
:1092C0001204120C424307249142C5D81A6992B283
:1092D000524507DA1869414680B202F025F889B292
:1092E0000029B9D1424607249207B5D16623E95A2D
:1092F00004240129B0D0009B316073600C01009EF2
:109300002B195F654A469E6547465C335A801F802D
:109310008023301C00225B050DE01E695F46360489
:10932000360CBF1BBB461E693604360C80191E69FD
:10933000B6B25E450DD81E690132B6B292B25E4534
:10934000EBD30026B346EEE70E2485E758690138D3
:10935000B2E72C195C3401316623A280A866E95279
:10936000002479E7AC2B00200010001030B5124C1F
:109370006423E55C0823002D01D1181C30BD0028B2
:1093800006D0002A04D00368002B03D00723F4E79B
:109390000E23F2E7656D002DF8D05C25655B406813
:1093A000694309185E20205A4543A06D2D18A94233
:1093B000ECD213605160E0E7AC2B0020F0B54746DB
:1093C00080B41F4C6425655D061C82B00F1C94465A
:1093D0000820002D03D102B004BC9046F0BD002946
:1093E0002BD0002E29D032680720002AF3D1656DDA
:1093F000002DF0D05C225E25A25A655B7168554352
:10940000A846A56D4544A942E5D26446002CE2D0A9
:109410006245E0D3E418A242DDDB1020BD07DAD1BB
:1094200003221342D7D11142D5D10093311C3A1CEB
:1094300063460220FFF75EFDCDE70E20CBE7C04676
:10944000AC2B0020F0B5474680B41F4C6425655D09
:10945000061C82B00F1C94460820002D03D102B0D8
:1094600004BC9046F0BD00292BD0002E29D03268D4
:109470000720002AF3D1656D002DF0D05C225E2517
:10948000A25A655B71685543A846A56D4544A9423B
:10949000E5D26446002CE2D06245E0D3E418A24253
:1094A000DDDB1020BD07DAD103221342D7D11142F0
:1094B000D5D10093311C3A1C63460520FFF71AFDF5
:1094C000CDE70E20CBE7C046AC2B0020F0B54E46D2
:1094D00045465746E0B4274D64242E5D82B0804651
:1094E0000F1C91460824002E06D1201C02B01CBC83
:1094F00090469946A246F0BD002906D0002804D027
:109500000C68002C03D00724EFE70E24EDE7686D0C
:109510000028F8D05C225E20AA5A285AAE6D50432B
:10952000496880198142EED248460028EBD04A456E
:10953000E9D3C0188242E6DB4246920701D01024EC
:10954000D3E703263342FAD1081C30408246F6D1D5
:1095500059184A46404601F04DFF3A68381C13013D
:10956000ED184B4600936D6D311C52464346A8479B
:10957000BBE7C046AC2B0020F0B5184A6424145D4C
:10958000051C83B00E1C0820002C01D103B0F0BDD7
:10959000002D21D02B680720002BF7D1536D002B15
:1095A000F4D05C215E27946D515AD25B6B684A43BC
:1095B00012199342EAD210209A07E7D1181B01F042
:1095C000B3FE07200029E1D100910022291C331CA1
:1095D0000420FFF78FFCD9E70E20D7E7AC2B002043
:1095E000084A6423D25C0823002A01D1181C704762
:1095F000002804D0044B5B7903600023F6E70E23B8
:10960000F4E7C046AC2B00202C2B002010B5002A1C
:1096100018D01288002913D0031C4118FF24187891
:1096200052BA92B24240D0B20009424010034240C6
:1096300092B2201C10404001013342408B42EED1D7
:10964000101C10BD004AE5E7FFFF00007EDF7047F9
:109650007FDF704781DF7047A9DF7047AADF70475F
:10966000002070470020704700207047002070479E
:10967000002070470020704770B543780F485C00A9
:10968000E518E9004258002A07D0AD0045192035F9
:10969000AD7860263540402D0BD000220021E31824
:1096A0009B00C018008CFFF7D7FF002800D00448AB
:1096B00070BD4118043192B2F1E7C046182C002069
:1096C0004180000000207047F0B54D4644465F469B
:1096D0005646F0B489B014236A4613814B782B4C5C
:1096E0005A00D3189B000190E3180D1C188C03A995
:1096F00002AAFFF7B3FF00281DD16E780422730081
:109700009B46B246DA445346DB0000931B19984649
:109710006B4691461F89C144484603A93A1C01F093
:1097200043FE00280FD152469300E4182034A3785A
:109730000222134022D0002009B03CBC904699463A
:10974000A246AB46F0BD009A1359002B13D1104A24
:1097500090465E44F60003A93A1CA751484601F022
:1097600049FE6B7801985900C918C9006118182280
:109770003423C047DFE7074B9846EAE742461360C9
:1097800053609360D36013615361D4E7182C0020B9
:10979000BD9301004594010070B5354D82B0041CA5
:1097A000281C0E1C2430A1786A46FFF7DFFD002834
:1097B00036D163785A00D3189B00EB1820339B787E
:1097C0009A0610D4022E48D0012E44D0294EA378F8
:1097D0001C225343291C2C31C91868460023B0476A
:1097E000002822D00FE0A378291CDA00D31A9B00AE
:1097F0002C31C91868461C220023FFF723FE0028DD
:1098000010D0022E0CD0237868465A00D3181A4A7A
:109810009B00D3189A7C194B9200D358211C98476F
:1098200002B070BD022EFBD0154E637868465A0018
:10983000D3189B00ED182035AB7820229343AB70F2
:10984000637818225900CB180E49DB007031C91813
:109850001C23B047D7E70C4EB9E7A3781C2253432B
:109860002C35E91868460023FFF7ECFDD8E7C04621
:10987000182C002061960100182D002098B90100D5
:1098800045940100982C0020BD93010038B54B7819
:10989000021C5800C0180A4CC0000D1C2018111CD6
:1098A00034231822FFF712FE002806D16B785A00E5
:1098B000D318DB001A59013200D038BD1851FCE72B
:1098C000182C0020F0B556465F464D464446F0B48D
:1098D000484E8946B1688BB0071C924698460029CD
:1098E00049D0149A502A46D8434B69460093002326
:1098F0000B764249149B42460D1C039202930024AE
:109900008B462435A1B2281C04AAFFF72FFD00289E
:1099100006D1381C04A9082201F046FD002856D0C3
:109920000134072CEED168468478FF2C23D04A46B8
:10993000042A36D05B462C334146CA1AC32A21D9A1
:109940002F4A414670328A1A172A2FD800224270B5
:10995000E200141BA4001B19039321222223494671
:10996000032938D069460B7602AA0792B368684685
:1099700006A9524698470BB03CBC90469946A24671
:10998000AB46F0BD52467369002A03D10122A240C2
:109990001342F0D00122A24093437361212222237B
:1099A000DDE7149B502B19D04323DBE74246594691
:1099B000531A172BDFD8002343700123C3702223CF
:1099C000CB5C022213400BD032233122C7E7E4B232
:1099D00068468470ABE76B461A76C5E72323C1E778
:1099E0000B604B608B60CB600B614B61312232238B
:1099F000B5E7C046182D002000FFFFFF182C0020FF
:109A0000982C002038B54B78021C5800C0180A4C1E
:109A1000C0000D1C2018111C34231822FFF756FD1E
:109A2000002806D16B785A00D318DB001A5901328E
:109A300000D038BD1851FCE7182C002070B54378D1
:109A40000F485C00E518E9004258002A07D0AD0035
:109A500045192035AD7860263540402D0BD00022C9
:109A60000021E3189B00C018008CFFF7F5FD0028CB
:109A700000D0044870BD4118043192B2F1E7C046ED
:109A8000182C002041800000F0B54D4644465F464A
:109A90005646F0B489B014236A4613814B782B4C98
:109AA0005A00D3189B000190E3180D1C188C03A9D1
:109AB00002AAFFF7D3FD00281DD16E78042273009F
:109AC0009B46B246DA445346DB0000931B19984686
:109AD0006B4691461F89C144484603A93A1C01F0D0
:109AE00063FC00280FD152469300E4182034A37879
:109AF0000222134022D0002009B03CBC9046994677
:109B0000A246AB46F0BD009A1359002B13D1104A60
:109B100090465E44F60003A93A1CA751484601F05E
:109B200069FC6B7801985900C918C900611818229E
:109B30003423C047DFE7074B9846EAE74246136005
:109B400053609360D36013615361D4E7182C0020F5
:109B5000BD93010045940100F0B55F4656464D4661
:109B60004446F0B4834685B0002800D170E0404FF1
:109B7000404E012122220023B95449422322B954E4
:109B8000B3607269B374BB61BB833B607B60BB60D5
:109B9000FB603B617B612C230020DB190124B8773B
:109BA00091463984984600250022FF20A24600E015
:109BB000E146012149425446AC4019834946A1433C
:109BC0008C46716118240121A41949422955013597
:109BD0005A749A74DA741A755A759A751A605A60BA
:109BE0009A60DA60187498761C33072DE0D1502300
:109BF0006A4624379380204B6846391CD5800093F1
:109C0000B946FFF71BFB00281BD101235C46F37705
:109C10002378002B1ED145460024A1B2484602AA53
:109C2000FFF7A4FB071E1ED1281C02A91C2200233B
:109C3000FFF74CFC002819D101341C35072CECD15E
:109C4000002005B03CBC90469946A246AB46F0BD0C
:109C50000A48F6E76A46D1889388381C594389B286
:109C6000FFF78AFCEDE70023F377EAE7F777E8E709
:109C7000182C0020182D0020C59801000E8000002F
:109C8000F8B5114C061CE37F0D1C002B01D10F48C9
:109C9000F8BD002809D0002907D00B68002B04D09C
:109CA000A768002F03D00A48F2E70A48F0E7201C13
:109CB000A3600C300631062201F09CFB2B790020BA
:109CC000A3743770E4E7C046182D00200880000018
:109CD000048000000E800000104908B5CB7F002BE7
:109CE00001D10F4808BD00280AD00378002BF8D115
:109CF0008B68002BF5D04378002B03D00948F1E79F
:109D00000948EFE7094A2223D35C012BF6D09807D4
:109D1000E7D5108C0C31FFF799FCE3E7182D0020F4
:109D200008800000108000000E800000182C002029
:109D3000154BDA7F002A01D11448704700280CD057
:109D400000290AD00278002AF6D19B68002BF3D0B4
:109D50004378002B03D00E48EFE70E48EDE70E4A9C
:109D60002223D35C012BF6D05A0705D4402213409E
:109D700006D10B700020E0E701230B700020DCE728
:109D800002230B700020D8E7182D00200880000067
:109D9000108000000E800000182C0020F0B5284B29
:109DA0005F46DA7F56464D464446F0B4002A06D157
:109DB00024483CBC90469946A246AB46F0BD0028DC
:109DC0003CD000293AD00A68002A37D08C68002C91
:109DD00034D00278002AEBD19E68002EE8D01A4ACF
:109DE0000025012402263C320020AB46A446B146A1
:109DF0000C795C451DD90C7BAC421AD9947A674624
:109E0000274209D110268F687642AC00B618E65179
:109E10005C192076947A01354E46264205D15F467C
:109E20000E68BC000127A251BB4401301C32072838
:109E3000DED15A460A710D730020BAE70348B8E72D
:109E4000182D002008800000182C00200E80000033
:109E50000048704790800000F0B54F464646C0B4B9
:109E6000284C83B0E37F002B05D1274803B00CBCFE
:109E700090469946F0BD00280AD00378002BF4D113
:109E8000A368002BF1D08578062D03D91F48EDE794
:109E90001F48EBE7EB001F4E5B1B9B009846B1464B
:109EA000C1444F464437BB78FF2BEFD0301C2430E1
:109EB000291C6A46FFF75AFA0028D7D16846502174
:109EC000FFF75AFB0028D1D142462C361032B21887
:109ED00050709070D0701071507190714A46464425
:109EE000FF233C3230607060B060F0601370BB7074
:109EF00001235B423B800123AB401D1C6369AB43E4
:109F00006361B3E7182D0020088000001080000076
:109F10000E800000182C0020F0B54F464646C0B415
:109F2000264C83B0E37F002B05D1254803B00CBC41
:109F300090469946F0BD00283BD00378002BF4D121
:109F4000A268002AF1D01F4B00251E1C243398461E
:109F5000FF232C360027994603E001351C36072DD8
:109F600029D0B37EFF2BF8D0A9B240466A46FFF74E
:109F7000FDF9071EF1D168465021FFF7FDFA071ED3
:109F8000EBD1331C707410229874D87418755875FE
:109F900098750021301C01F0C1FA01234A465B424A
:109FA0003274B276338362690123AB409A436261B3
:109FB000D3E70548BAE7381CB8E7C046182D00209B
:109FC00008800000182C00200E80000070B5244B83
:109FD00082B0DA7F041C0D1C002A02D1214802B095
:109FE00070BD00280CD000290AD00278002AF5D1D3
:109FF0009B68002BF2D04378002B03D01A48EEE781
:10A000001A48ECE71A4E2223F35C012BF6D0837832
:10A01000062BF3D8DA00D21A9200B21844329278A2
:10A02000FF2AEBD08968002906D06A68501E1228E2
:10A0300002D8287801280DD0301C99B26A46243005
:10A04000FFF794F92A780B4B9200D3586846211CED
:10A050009847C4E7301D01F0CDF9A378ECE7C0467E
:10A06000182D002008800000108000000E800000E5
:10A07000182C002098B9010070B5284B82B0DA7F07
:10A08000041C0D1C002A02D1254802B070BD002816
:10A090000CD000290AD00278002AF5D19B68002B49
:10A0A000F2D08378062B03D91E48EEE71E48ECE772
:10A0B000DA001E48D21A9200821844329278FF2A9F
:10A0C000F2D06278510089188900411820318978CE
:10A0D0008E0701D41648D8E7AE68191C002E0CD0A4
:10A0E0006A462430FFF742F92B78124A9B00D318B6
:10A0F0001B696846211C9847C7E76E68132EEFD886
:10A100002E78012EECD118235A4382180432AA600B
:10A1100062785343C3586B60A178E1E7182D0020A3
:10A1200008800000108000000E800000182C002025
:10A130009180000098B901000F4BDA7F002A15D0FA
:10A14000002817D00278002A10D19B68002B0DD070
:10A150008378062B0CD8DA00D31A084A9B00D31850
:10A1600044339B78FF2B03D0054800E00548704737
:10A170000548FCE70548FAE7182D0020182C0020B8
:10A180009080000008800000108000000E80000019
:10A19000004870479180000000487047918000009F
:10A1A00000487047918000000A4BDA7F002A01D1F5
:10A1B0000948704700290AD0002808D00278002AF0
:10A1C000F6D19B68002BF3D00A700020F1E703481A
:10A1D000EFE7C046182D0020088000000E80000028
:10A1E000002806D0FF23037043708370C3700020E3
:10A1F00070470148FCE7C0460E80000038B51D4C92
:10A20000051CE37F002B01D11B4838BD00280CD072
:10A2100000290AD00378002BF6D1A268002AF3D0D7
:10A220008378062B03D91548EFE71548EDE7DA00E8
:10A23000D31A14489B00C018031C44339B78FF2B8F
:10A24000F1D06B78FF2B01D00F48DEE70B78022BA3
:10A25000FAD007223C3001F0CDF8AB7801229A40C9
:10A26000131C6269281C134302216361FFF794FAEF
:10A270000020CAE7182D0020088000001080000090
:10A280000E800000182C00200780000008B51B4B32
:10A29000DA7F002A01D11A4808BD00281CD0002905
:10A2A0001AD00278002AF6D19B68002BF3D083786D
:10A2B000FF2B13D0DA00D31A124A9B00D3181A1CB2
:10A2C00044329278900717D43C33081C0722191C9B
:10A2D00001F090F80020DFE70B48DDE74378FF2B23
:10A2E0000AD05A00D318074A9B00D3181A1C2032F0
:10A2F000927818339007E8D40448CDE7182D002051
:10A3000008800000182C00200E800000058000004E
:10A3100010B5041C81780F4882B024306A46FFF7DC
:10A3200025F8002814D1637869465800C3180A48F4
:10A33000DB007030C01818221C23FFF7C7F8074B4A
:10A34000074A9B7C68469B00D3181B69211C9847D1
:10A3500002B010BD182C0020982C0020182D0020D1
:10A3600098B90100F0B54D4644465F465646F0B4F4
:10A37000D44C8DB0E27FFF23051C0593002A32D018
:10A38000A068804600282ED06A4653749374D37414
:10A3900008AE2B1D73603423338100226B461A7480
:10A3A0002B88102B00D13AE1AF882222B946C64F44
:10A3B000FF20BA5C019702928446920707D5C34AF0
:10A3C000914500D12BE23A8C4A4500D127E2142B6B
:10A3D00000D1C0E00ED9182B00D17FE1522B00D163
:10A3E00067E1172B38D00DB03CBC90469946A24689
:10A3F000AB46F0BD112B00D1BBE0132BF3D1221CD7
:10A400000C32484600213370FFF722F9021EEAD1D0
:10A41000019F2223F95C04200843F8542320385C70
:10A42000FF2800D044E2A068804604A8311CC04741
:10A430003378122BD7D1019D2223EA5C012AD2D096
:10A440000122EA5401235B422322AB5400222B84D5
:10A45000AA61AA83AA77C6E702980423019F9843BA
:10A4600022217854AA79142382463370002ADCD141
:10A47000974A72209146EA7A4B461A54AA7A742770
:10A4800071201A54BB46281C0C30CB44039059460B
:10A490008CC88CC103900CC80CC1029F00227F069F
:10A4A000C3D55046019F0823034322203B54232356
:10A4B000FB5CFF2B00D10AE2514628233D1C0B43D5
:10A4C0002227281CEB5506AD243061462A1CFEF7D6
:10A4D0004DFF00283BD16846437C019F5A00D318AA
:10A4E0009B00FB1820339B78980600D410E2794932
:10A4F00088466F46BB7C0199DA00D31A9B002C3149
:10A50000C918281C1C220023C047002812D17B7CBC
:10A51000019F5A00D3189A00BA182032917820204F
:10A52000814391704946DB007031C918281C1822FC
:10A530001C23C0476846037C04A95A00D3189B001B
:10A54000E3189A7C644B9200D358281C9847A16862
:10A550000022884669E7019E2323F35CFF2B00D18C
:10A5600006E15B4B74334846191C0022FFF772F872
:10A5700039E7029A0223019D9A43029F2223EA545B
:10A5800008233B4000D1C2E07F0600D4E8E0281C4D
:10A5900006AD243061462A1CFEF7E8FE00283BD1B8
:10A5A0006846437C019F5A00D3189B00FB18203358
:10A5B0009B78980600D4AEE1464988466F46BB7C3E
:10A5C0000199DA00D31A9B002C31C918281C1C22CF
:10A5D0000023C047002812D17B7C019F5A00D3186A
:10A5E0009A00BA182032917820208143917038491E
:10A5F000DB007031C918281C18221C23C04768468C
:10A60000037C04A95A00D3189B00E3189A7C324BB0
:10A610009200D358281C9847A1688846A0E02A4F8A
:10A620002223F95C0197C80700D4DCE66F467A74F0
:10A63000AA88019F11213A84381C0222FA543170F1
:10A640001830A91D0722894600F0D4FE6B7BDA077B
:10A6500000D4EEE05B08E3181B7EFF2B00D155E130
:10A660000593191C019D2322AB540A202222A854D1
:10A67000281C6F46243006AABB74FEF777FE00281C
:10A6800013D17B7C12485A00D318DB007030C018FD
:10A6900006A918221C23FEF719FFA37C0E4A9B0073
:10A6A000D3181B6906A804A99847A0680022804611
:10A6B000BBE6A37C084A9B00D3181B6A04A89847F2
:10A6C00091E6C046182D0020182C0020FFFF000046
:10A6D000982C00204594010098B90100029940236C
:10A6E000019D19432223E95415233370A37CBF4AEB
:10A6F0009B00D3181B6A04A89847002803D0A068C1
:10A70000BB4A804691E6A7680022B8468DE66246BD
:10A71000FF2A25D0D100891A890001980D1C2C3000
:10A72000103545196B70AB70EB702B716B71AB71A1
:10A73000019D42186918136053609360D3600A1C2E
:10A74000FF2344313C32137060698B700122012376
:10A7500067465B42BA400B809043694660618B74E8
:10A76000019D10222223EA541223337000225CE65A
:10A770004423EA89F35A934200D1E5E06023F35A77
:10A78000934200D1DEE07C23F35A934200D1D7E01C
:10A790009823F35A934200D1D0E0B423F35A934262
:10A7A00000D1C9E0D023F35A934200D1C2E0EC2398
:10A7B000F65A0023964200D0D5E60623019FDAB26E
:10A7C000232002993A540820014322203954684634
:10A7D0008274381C243099B206AA0593FEF7C6FD90
:10A7E000002812D169464B7C18225343814806A9A0
:10A7F0007030C0181C23FEF769FEA37C7B4A9B00C7
:10A80000D3181B6906A804A99847019E2323AD8885
:10A81000F35CA946FF2B00D0A3E60023A3E6019F2B
:10A820002322BA5C68469246002182744174D44661
:10A83000CDE5019849463C30072200F0B5FD0028DF
:10A8400076D0019849465830072200F0ADFD002827
:10A8500068D0019849467430072200F0A5FD002811
:10A860005ED0019849469030072200F09DFD0028F7
:10A8700054D001984946AC30072200F095FD0028DD
:10A8800054D001984946C830072200F08DFD0028B9
:10A890004AD0019849460722E43000F085FD0022A5
:10A8A0000621002800D0C0E50591CBB289B2D9E6D7
:10A8B000162030700198A768051C42608260C26053
:10A8C0000261426124200143E954B846ADE54623C4
:10A8D000FB5CFF2B00D17FE06223FB5CFF2B79D078
:10A8E0007E23FB5CFF2B31D09A23FB5CFF2B7BD0BC
:10A8F000B623FB5CFF2B73D0D223FB5CFF2B6DD008
:10A90000EE23FB5CFF2B6DD03B4A8EE5FF21A9E6D1
:10A910003A4A9046EDE5394A90464FE60321C3E7AF
:10A920000221C1E70121BFE70521BDE70421BBE703
:10A930000021B9E7052341E704233FE703233DE76F
:10A9400002233BE7012339E7002337E70223019F76
:10A950003A7E022A3CD01C205843BA6938183C2160
:10A96000C26309188C46B88B391C67461831B88009
:10A970008979B971FD211C22101C5843019F381898
:10A980004430817005A90B70059B6846D9B25343CA
:10A990008174AA892320FB18395444331A80EA7A37
:10A9A0005207D20F9446012A0DD13B1C2C3320357F
:10A9B00086CD86C32D6867461D60019D4623E95CF0
:10A9C0000A1CBA43EA5404A80121FEF7E5FE6CE62E
:10A9D000FE21D0E70123BAE70023B8E70523B6E755
:10A9E0000423B4E70623B2E70323B0E798B90100D4
:10A9F00041800000982C00204380000061960100F7
:10AA00008421074849004358054A012BFBD1842380
:10AA100000215B00D150A323DB00D058C0B27047A7
:10AA20000020004010B5021C164C84204000235822
:10AA3000012B18D0013A531C22D4FA239B00C046A4
:10AA4000C046C046C046C046C046C046C046C046D6
:10AA5000C046C046C046C046C046013B002BEED1B2
:10AA60002358012BE6D10120002A08DB054B842264
:10AA7000520000249C50A322D2009B580B7010BDA2
:10AA80000020F1E7002000400649074B8E22C85005
:10AA900052008B58012BFCD1024A8E2300215B000F
:10AAA000D1507047002000401C050000F0B503782D
:10AAB0000130002B10D0094A8E214900084F161C86
:10AAC0000D1C0024D3515358012BFCD1013074517B
:10AAD000431E1B78002BF5D1F0BDC046002000407E
:10AAE0001C050000F0B54F464646C0B407AC2478BC
:10AAF000E0267600A446A0258C19ED05A4000327C6
:10AB000067519C19A40000266651B146164C174E99
:10AB1000A151174963506146002911D0E026760003
:10AB200083199B005F5193199B0049465951A223F9
:10AB3000DB00E250A123DB00E0500E4B0122E2508B
:10AB4000094B0D490D4A9950A0220421D200995079
:10AB500001229A601A6084220021520099500CBC94
:10AB600090469946F0BDC046002000400C0500000C
:10AB7000140500006C05000000509D002405000035
:10AB8000F0B55F4656464D464446F0B4A223A02297
:10AB9000DB00D205D058BE23524A00215B00524F41
:10ABA000D1503F7885B08346B9468A46002F60D0A1
:10ABB000E0240125E40005E053460133DBB29A4668
:10ABC0004B4556D2484F2B1C5146B8688B407A688B
:10ABD0001842F1D08E005644B6009619F2683768D4
:10ABE000D1435B4641484B40391C029319400197C1
:10ABF0000023804613E01043802292029446A0274F
:10AC0000FF059A00D219F06010594746384010519C
:10AC100010596746384310510133202B0BD02A1CA2
:10AC20009A401142F8D0F0681042E4D09043C0221C
:10AC300092029446E3E7A223A022DB00D205D35878
:10AC4000584643401CD1B3685F467068BB433840E8
:10AC50001A1C02431142AFD0084032691940904794
:10AC6000214F53463F780133DBB2B9469A464B45F4
:10AC7000A8D305B03CBC90469946A246AB46F0BD71
:10AC8000F2681843D1438346184F48400199039016
:10AC900001400023B84613E01043802292029446FC
:10ACA000F060A020C0059A0012181059474638409D
:10ACB000105110596746384310510133202B0BD0E7
:10ACC0002A1C9A401142F8D0F0681042E4D0904318
:10ACD000C02292029446E3E703990298019A014345
:10ACE0001140B0E700600040382D0020FFFFFCFF5E
:10ACF00010B5002906D003240C400723002C03D0F4
:10AD0000181C10BD0723FBE7114B820018731018A5
:10AD100059608200081C00211C709C6000F0FEFB42
:10AD20000C4A0121C22349429B00D1500A4BC02149
:10AD3000402249005A50C12189005C5807482040F0
:10AD40008024E403204358501A600023D8E7C0460B
:10AD5000382D00200060004000E100E0FFFF00FF10
:10AD6000F0B51B4C071C6568002D08D0002B2DD0BA
:10AD7000207B267884460420B44502D8F0BD082004
:10AD8000FCE7B000801980002D18081C10432860D3
:10AD900069602B61AA60731C3E702370E0212C68EF
:10ADA0000C4E00230120C900021C9A40144208D016
:10ADB000A025ED059A005219555835405550555863
:10ADC00055500133202BEFD10020D7E70720D5E7DE
:10ADD000382D0020FFFFFCFFF0B52C4B4F46596883
:10ADE0004646C0B4021C002946D01C780720944275
:10ADF00003D80CBC90469946F0BD254CBE200025DA
:10AE000040002550A220A025C000ED052E589868CE
:10AE1000B046002834D0970001249440BF18204346
:10AE2000BF001C4ACF199860E0210023FB603C68FA
:10AE30000120C900944614E0FE6880253243AD022B
:10AE4000FA60A946A025ED059A00521956586546A4
:10AE50002E40565056584D46354355500133202B01
:10AE60000CD0021C9A401442F8D045461542E3D05B
:10AE7000C025AD02A946E5E70820BAE70020B8E7FB
:10AE80008026C1253606AD006651C4E7382D002066
:10AE900000600040FFFFFCFFF0B5474680B41D4F47
:10AEA00080467B68002B07D039780722814205D87D
:10AEB000101C04BC9046F0BD0822F9E78200424411
:10AEC00015489200E021D55801240023C90084468A
:10AED000221C9A40154209D0A026F6059A00921924
:10AEE0005658604606405650565856500133202B4F
:10AEF000EED10123181C4146BB6888408343BB60E8
:10AF00000022002BD4D18020C223044900069B00DC
:10AF1000C850CDE7382D0020FFFFFCFF0060004047
:10AF20000C4B10B55A68002A12D01C7807238442B3
:10AF300001D8181C10BDA223A024DB00E405E458AE
:10AF4000830018188000835823400B600023F0E72B
:10AF50000823EEE7382D002070B5084C061C206849
:10AF60000D1CFDF771FD002807D1321C2068E16837
:10AF70002A43A6606560FDF7DFFC70BD482D002008
:10AF8000F0B557464E464546E0B43F4C82B0207C73
:10AF900001A9FFF7C5FF002823D1627C0025002A04
:10AFA0001FD03A488246814680466169EB00CB1843
:10AFB0001978012660688E4030421ED05F68002FED
:10AFC0001BD05B78012B2FD0A369002B3AD0381C03
:10AFD0000122984700280AD1627C0135EDB29542E2
:10AFE000E3D302B01CBC90469946A246F0BD52463F
:10AFF0002821FBF705F9627CEFE7A0683042ECD02E
:10B000005E68002EE9D05B78012B20D0A369002B6D
:10B010002BD0301C002298470028DDD04246282142
:10B02000FBF7EEF8627CD8E7A369002B21D0381C2F
:10B03000002298470028CFD04A462821FBF7E0F8A5
:10B04000627CCAE7081C0121B847627CC5E7A36996
:10B05000002B13D0301C012298470028BCD00B4A8B
:10B060002821FBF7CDF8627CB7E7081C0021B04728
:10B07000B2E7081C0021B847627CAEE7081C01213A
:10B08000B047627CA9E7C046482D0020CCB901003A
:10B09000F0B5474680B4071C0720042A02D804BC38
:10B0A0009046F0BD174883614B1EC26080464761E1
:10B0B0004174DBB20022002915D0A021C9058C46BD
:10B0C0000120DC003C192178A678C131FF318900CC
:10B0D000B60065464E512178013B041C8C40DBB222
:10B0E0002243FF2BEDD140461030111C064BFFF7D9
:10B0F00037FE0028D3D140460021044AFDF7EAFB81
:10B10000CDE7C046482D002059AF010081AF0100B6
:10B1100008B5044B08205A69002A02D0187CFFF7B2
:10B120005BFE08BD482D002010B5074C0820636960
:10B13000002B04D0207CFFF7AFFE002800D010BD0C
:10B140002068FDF781FCFAE7482D002070B5174A0A
:10B15000041C507C82B00D1C0723A04202D2181C94
:10B1600002B070BD56690823002EF8D0107C01A9EA
:10B17000FFF7D6FE031EF2D1E40036197278002ADA
:10B1800007D133780199D940CA070AD500232B701B
:10B19000E5E7031C012AE2D133780199D9400A423C
:10B1A000F4D001232B700023D9E7C046482D00209E
:10B1B000014A024B1A6070470024F4000820002066
:10B1C0001B4B1B78012B00D070471A4B1B681A07CA
:10B1D000FAD1194AF02312681A4003D0102A01D07C
:10B1E000302A03D1154A12681A4210D0124AF023AD
:10B1F00012681A40402AE7D1104A12681A42E3D175
:10B20000C12380220121DB00D205D150DCE70C4AAA
:10B210000C4B1A600C4B802212021A60044B1B78F4
:10B22000012BD1D1034B1B681A07DFD0CCE7C046F6
:10B23000E00F00F0E40F00F0E80F00F0EC0F00F07A
:10B24000DFFF07C004050040186C004003210A48D6
:10B2500002680A430260094802680A43026008491A
:10B26000084A094B9B1A03DD043BC858D050FBDC4D
:10B270000648804706480047240500405405004022
:10B2800010BA0100002000204C240020C1B10100B0
:10B2900021610100FEE7FEE7FEE7FEE7FEE7FEE7CD
:10B2A000002934D00123002210B488422CD3012479
:10B2B0002407A14204D2814202D209011B01F8E70E
:10B2C000E400A14204D2814202D249005B00F8E7C7
:10B2D000884201D3401A1A434C08A04202D3001BF3
:10B2E0005C0822438C08A04202D3001B9C08224326
:10B2F000CC08A04202D3001BDC082243002803D064
:10B300001B0901D00909E3E7101C10BC7047002895
:10B3100001D00020C04307B4024802A140180290A7
:10B3200003BDC046190000000029F0D003B5FFF7A7
:10B33000B9FF0EBC4243891A1847C0467047C04641
:10B3400010B50021041C00F095F9044B1868C36B7C
:10B35000002B00D09847201C00F098FA00BA01009A
:10B3600070B50D4E0D4D0024AD1BAD1005D0A300E2
:10B37000F35801349847A542F9D100F089FA084EF4
:10B38000084D0024AD1BAD1005D0A300F3580134C7
:10B390009847A542F9D170BD3C2400203C240020F0
:10B3A0003C2400204424002030B5032A1DD9031C6E
:10B3B0000B439C0710D005780C78431C8018A542DD
:10B3C00005D015E01D780C780133A54210D101316C
:10B3D0008342F7D1002030BD03680C68A34204D13A
:10B3E000043A04300431032AF6D8002AE3D1F1E705
:10B3F000281BF0E7F0B50F2A35D9031C0B439C0737
:10B4000035D1161C103E36093501451910350C1C76
:10B41000031C27681F6067685F60A7689F60E76814
:10B420001034DF601033AB42F3D1731C1B01C5181D
:10B43000C9180F231340032B1BD91C1FA408013468
:10B44000A4000023CE58EE500433A342FAD1ED18E5
:10B45000C91803231A4005D00023CC5CEC540133F7
:10B460009342FAD1F0BD051C002AF5D1FAE7051C7C
:10B47000F2E71A1CF8E7C046F0B588420ED98D18DD
:10B48000A8420BD28618531E5142002A05D06A18D2
:10B49000D45C7218D454013BF9D2F0BD0F2A09D8FC
:10B4A000051C002AF9D00023CC5CEC5401339342F4
:10B4B000FAD1F2E7031C0B439C072AD1161C103E5D
:10B4C00036093501451910350C1C031C27681F600F
:10B4D00067685F60A7689F60E7681034DF601033BB
:10B4E000AB42F3D1731C1B01C518C9180F231340BD
:10B4F000032B10D91C1FA4080134A4000023CE582C
:10B50000EE500433A342FAD1ED18C91803231A40B0
:10B51000C7E7051CC7E71A1CC3E7C046F0B54F468E
:10B520004646C0B483B0830752D0541E002A4AD086
:10B53000CEB2031C032503E0621E002C43D0141C72
:10B5400001335A1E16702B42F6D1032C33D9FF2536
:10B550000D402A0215432A0415430F2C1AD9271C23
:10B56000103F3F09B9463F01B8461027FF18BC46B7
:10B5700046461A1C6644156055609560D5601032C9
:10B58000B242F8D14F4601373F010F22DB19144078
:10B59000032C10D9271F1E1DBF080196BE00B446FC
:10B5A000019E1A1C664420C2B242FCD10137BF0082
:10B5B0000322DB191440002C05D0C9B21C191970E4
:10B5C0000133A342FBD103B00CBC90469946F0BDB9
:10B5D000031C141CB9E7C0460023C25C0133002AD7
:10B5E000FBD1581E7047C046031C0B43F0B5041C2A
:10B5F0009D0701D1032A15D8002A12D00D78013AEF
:10B60000631C4E1C2570002D1BD0311C07E00C78EC
:10B6100001335D1E013A2C700131002C11D0002A3B
:10B62000F5D1F0BD0B4E0B680B4FDD199D43354234
:10B63000E2D10434251F043A04312B60032AF2D8E6
:10B64000DAE79C180021002AEBD019700133A342DD
:10B65000FBD1E6E780808080FFFEFEFE08B5034B4D
:10B66000002B02D0024800F091F808BD0000000055
:10B670009DB70100F0B55F4656464D464446F0B4CE
:10B68000404B85B01B68029001934933FF3303930D
:10B690000F1C0198A421490042589046002A4AD024
:10B6A0000398814641464E68741E41D44546A30026
:10B6B0008835ED18C620C42301365B004000B60073
:10B6C0009B4682464644C344C24408E02B1C803358
:10B6D0001B68BB4205D0043D043E013C28D3002F2B
:10B6E000F4D141464A683368013AA2422CD0002284
:10B6F0003260002BEFD0404659464068012209686D
:10B70000A240009011421DD05046006810421DD149
:10B7100002982968984741464968009A9142B8D1F1
:10B720004A4612684245B4D1043D043E013CD6D29B
:10B73000154A002A0DD105B03CBC90469946A24658
:10B74000AB46F0BD9847E6E74C60D2E728689847DB
:10B75000E1E743465B684046002B0DD10368002BB0
:10B760000ED049460B6000E000BF4B461A68904679
:10B770004146002996D1DEE70368C1469846F7E7BF
:10B780000023FAE700BA01000000000008B5011C20
:10B7900000220020002300F019F808BD38B5094B3D
:10B7A000094DED1AAD1009D0013DAC00E41800E0E0
:10B7B000013D23689847043C002DF9D100F06EF854
:10B7C00038BDC0464424002048240020F0B54F4630
:10B7D0004646C0B498462B4BA4251B686D005C59A7
:10B7E00083B0061C0F1C91460193002C44D0656861
:10B7F0001F2D1ADD244B002B02D1012040421CE0FA
:10B80000C820400000E000BF041EF6D000254560BF
:10B81000A42301985B00C05801992060CC50C42338
:10B820005B00E550C6235B00E550002E0AD16B1C7F
:10B830000235AD00636000202F5103B00CBC904670
:10B840009946F0BDAB00E318882248469850C420C2
:10B850004000221810680121A9400843106084228A
:10B86000520040469850022EE1D1C6225200A31841
:10B87000186801431960DAE71C1C4D34FF345C5131
:10B88000B5E7C04600BA010000000000FEE7C04670
:10B89000F8B5C046F8BC08BC9E467047F8B5C0462F
:10B8A000F8BC08BC9E4670470D1801000F18010037
:10B8B0000A1801002E2E2F6D61696E2E63000000A4
:10B8C0004E6F726469635F48524D00004E6F726440
:10B8D000696353656D69636F6E647563746F72003D
:10B8E0002E2E2F2E2E2F2E2E2F2E2E2F2E2E2F2F72
:10B8F000536F757263652F626C652F626C655F7341
:10B90000657276696365732F626C655F6469732E17
:10B91000630000002E2E2F2E2E2F2E2E2F2E2E2F98
:10B920002E2E2F536F757263652F73645F636F6D77
:10B930006D6F6E2F736F66746465766963655F689B
:10B94000616E646C65722E63000000002E2E2F2E37
:10B950002E2F2E2E2F2E2E2F2E2E2F536F757263DD
:10B96000652F6170705F636F6D6D6F6E2F617070AA
:10B970005F74696D65722E6300000000BE8D01006A
:10B98000668C0100328C01001C8D0100648D010069
:10B99000F28C0100B28C010065960100C99601008D
:10B9A00069960100899A01006D9601008D98010049
:10B9B00071960100059A01007596010079960100C3
:10B9C000C59601003D9A0100FFFFFFFF2E2E2F2E8E
:10B9D0002E2F2E2E2F2E2E2F2E2E2F536F7572635D
:10B9E000652F6170705F636F6D6D6F6E2F6170702A
:10B9F0005F627574746F6E2E630000004300000078
:08BA00001020002000000000EE
:08BA080018A7FF7F01000000F8
:10BA1000000000000100FFFF0024F400000000000F
:10BA200000000000FC22002064230020CC23002022
:10BA30000000000000000000000000000000000006
:10BA400000000000000000000000000000000000F6
:10BA500000000000FCB90100000000000000000030
:10BA600000000000000000000000000000000000D6
:10BA700000000000000000000000000000000000C6
:10BA800000000000000000000000000000000000B6
:10BA900000000000000000000000000000000000A6
:10BAA0000000000000000000000000000000000096
:10BAB0000000000000000000000000000000000086
:10BAC0000000000000000000010000000000000075
